{
  "contractName": "LoanManager",
  "abi": [
    {
      "anonymous": false,
      "inputs": [
        {
          "indexed": true,
          "internalType": "uint256",
          "name": "loanId",
          "type": "uint256"
        },
        {
          "indexed": true,
          "internalType": "address",
          "name": "borrower",
          "type": "address"
        }
      ],
      "name": "LoanAccepted",
      "type": "event"
    },
    {
      "anonymous": false,
      "inputs": [
        {
          "indexed": true,
          "internalType": "uint256",
          "name": "loanId",
          "type": "uint256"
        },
        {
          "indexed": true,
          "internalType": "address",
          "name": "lender",
          "type": "address"
        },
        {
          "indexed": false,
          "internalType": "uint256",
          "name": "amount",
          "type": "uint256"
        },
        {
          "indexed": false,
          "internalType": "uint256",
          "name": "termDays",
          "type": "uint256"
        }
      ],
      "name": "LoanRequested",
      "type": "event"
    },
    {
      "inputs": [],
      "name": "loanCount",
      "outputs": [
        {
          "internalType": "uint256",
          "name": "",
          "type": "uint256"
        }
      ],
      "stateMutability": "view",
      "type": "function",
      "constant": true
    },
    {
      "inputs": [
        {
          "internalType": "uint256",
          "name": "",
          "type": "uint256"
        }
      ],
      "name": "loans",
      "outputs": [
        {
          "internalType": "address",
          "name": "lender",
          "type": "address"
        },
        {
          "internalType": "address",
          "name": "borrower",
          "type": "address"
        },
        {
          "internalType": "uint256",
          "name": "amount",
          "type": "uint256"
        },
        {
          "internalType": "uint256",
          "name": "termDays",
          "type": "uint256"
        },
        {
          "internalType": "string",
          "name": "purpose",
          "type": "string"
        },
        {
          "internalType": "string",
          "name": "repaymentFrequency",
          "type": "string"
        },
        {
          "internalType": "uint256",
          "name": "status",
          "type": "uint256"
        }
      ],
      "stateMutability": "view",
      "type": "function",
      "constant": true
    },
    {
      "inputs": [
        {
          "internalType": "uint256",
          "name": "amount",
          "type": "uint256"
        },
        {
          "internalType": "uint256",
          "name": "termDays",
          "type": "uint256"
        },
        {
          "internalType": "string",
          "name": "purpose",
          "type": "string"
        },
        {
          "internalType": "string",
          "name": "repaymentFrequency",
          "type": "string"
        }
      ],
      "name": "requestLoan",
      "outputs": [
        {
          "internalType": "uint256",
          "name": "",
          "type": "uint256"
        }
      ],
      "stateMutability": "nonpayable",
      "type": "function"
    },
    {
      "inputs": [
        {
          "internalType": "uint256",
          "name": "loanId",
          "type": "uint256"
        }
      ],
      "name": "acceptLoan",
      "outputs": [],
      "stateMutability": "nonpayable",
      "type": "function"
    },
    {
      "inputs": [],
      "name": "getLoanCount",
      "outputs": [
        {
          "internalType": "uint256",
          "name": "",
          "type": "uint256"
        }
      ],
      "stateMutability": "view",
      "type": "function",
      "constant": true
    },
    {
      "inputs": [
        {
          "internalType": "uint256",
          "name": "loanId",
          "type": "uint256"
        }
      ],
      "name": "getLoan",
      "outputs": [
        {
          "internalType": "address",
          "name": "lender",
          "type": "address"
        },
        {
          "internalType": "address",
          "name": "borrower",
          "type": "address"
        },
        {
          "internalType": "uint256",
          "name": "amount",
          "type": "uint256"
        },
        {
          "internalType": "uint256",
          "name": "termDays",
          "type": "uint256"
        },
        {
          "internalType": "string",
          "name": "purpose",
          "type": "string"
        },
        {
          "internalType": "string",
          "name": "repaymentFrequency",
          "type": "string"
        },
        {
          "internalType": "uint256",
          "name": "status",
          "type": "uint256"
        }
      ],
      "stateMutability": "view",
      "type": "function",
      "constant": true
    }
  ],
  "bytecode": "0x608060405234801561001057600080fd5b5061111e806100206000396000f3fe608060405234801561001057600080fd5b50600436106100625760003560e01c806349cdbcd014610067578063504006ca1461009757806352196812146100cd578063adfbe22f146100eb578063ce63094d14610107578063e1ec3c6814610125575b600080fd5b610081600480360381019061007c9190610a5f565b61015b565b60405161008e9190610b0d565b60405180910390f35b6100b160048036038101906100ac9190610b28565b610326565b6040516100c49796959493929190610c15565b60405180910390f35b6100d561057c565b6040516100e29190610b0d565b60405180910390f35b61010560048036038101906101009190610b28565b610586565b005b61010f610737565b60405161011c9190610b0d565b60405180910390f35b61013f600480360381019061013a9190610b28565b61073d565b6040516101529796959493929190610c15565b60405180910390f35b60008060015490506040518060e001604052803373ffffffffffffffffffffffffffffffffffffffff168152602001600073ffffffffffffffffffffffffffffffffffffffff168152602001878152602001868152602001858152602001848152602001600081525060008083815260200190815260200160002060008201518160000160006101000a81548173ffffffffffffffffffffffffffffffffffffffff021916908373ffffffffffffffffffffffffffffffffffffffff16021790555060208201518160010160006101000a81548173ffffffffffffffffffffffffffffffffffffffff021916908373ffffffffffffffffffffffffffffffffffffffff1602179055506040820151816002015560608201518160030155608082015181600401908161028d9190610e9e565b5060a08201518160050190816102a39190610e9e565b5060c08201518160060155905050600160008154809291906102c490610f9f565b91905055503373ffffffffffffffffffffffffffffffffffffffff16817f68595dbe887ae7f496f2c88735019a8918919a1decfdee6bdb460480ab87decb8888604051610312929190610fe7565b60405180910390a380915050949350505050565b6000806000806060806000806000808a81526020019081526020016000206040518060e00160405290816000820160009054906101000a900473ffffffffffffffffffffffffffffffffffffffff1673ffffffffffffffffffffffffffffffffffffffff1673ffffffffffffffffffffffffffffffffffffffff1681526020016001820160009054906101000a900473ffffffffffffffffffffffffffffffffffffffff1673ffffffffffffffffffffffffffffffffffffffff1673ffffffffffffffffffffffffffffffffffffffff168152602001600282015481526020016003820154815260200160048201805461041f90610cc1565b80601f016020809104026020016040519081016040528092919081815260200182805461044b90610cc1565b80156104985780601f1061046d57610100808354040283529160200191610498565b820191906000526020600020905b81548152906001019060200180831161047b57829003601f168201915b505050505081526020016005820180546104b190610cc1565b80601f01602080910402602001604051908101604052809291908181526020018280546104dd90610cc1565b801561052a5780601f106104ff5761010080835404028352916020019161052a565b820191906000526020600020905b81548152906001019060200180831161050d57829003601f168201915b505050505081526020016006820154815250509050806000015181602001518260400151836060015184608001518560a001518660c00151975097509750975097509750975050919395979092949650565b6000600154905090565b600080600083815260200190815260200160002060060154146105de576040517f08c379a00000000000000000000000000000000000000000000000000000000081526004016105d59061105c565b60405180910390fd5b3373ffffffffffffffffffffffffffffffffffffffff1660008083815260200190815260200160002060000160009054906101000a900473ffffffffffffffffffffffffffffffffffffffff1673ffffffffffffffffffffffffffffffffffffffff1603610681576040517f08c379a0000000000000000000000000000000000000000000000000000000008152600401610678906110c8565b60405180910390fd5b3360008083815260200190815260200160002060010160006101000a81548173ffffffffffffffffffffffffffffffffffffffff021916908373ffffffffffffffffffffffffffffffffffffffff1602179055506001600080838152602001908152602001600020600601819055503373ffffffffffffffffffffffffffffffffffffffff16817f3ad02261725390771e704d06848ed8e414d628daf1b8dbffe111f437c848d62060405160405180910390a350565b60015481565b60006020528060005260406000206000915090508060000160009054906101000a900473ffffffffffffffffffffffffffffffffffffffff16908060010160009054906101000a900473ffffffffffffffffffffffffffffffffffffffff16908060020154908060030154908060040180546107b890610cc1565b80601f01602080910402602001604051908101604052809291908181526020018280546107e490610cc1565b80156108315780601f1061080657610100808354040283529160200191610831565b820191906000526020600020905b81548152906001019060200180831161081457829003601f168201915b50505050509080600501805461084690610cc1565b80601f016020809104026020016040519081016040528092919081815260200182805461087290610cc1565b80156108bf5780601f10610894576101008083540402835291602001916108bf565b820191906000526020600020905b8154815290600101906020018083116108a257829003601f168201915b5050505050908060060154905087565b6000604051905090565b600080fd5b600080fd5b6000819050919050565b6108f6816108e3565b811461090157600080fd5b50565b600081359050610913816108ed565b92915050565b600080fd5b600080fd5b6000601f19601f8301169050919050565b7f4e487b7100000000000000000000000000000000000000000000000000000000600052604160045260246000fd5b61096c82610923565b810181811067ffffffffffffffff8211171561098b5761098a610934565b5b80604052505050565b600061099e6108cf565b90506109aa8282610963565b919050565b600067ffffffffffffffff8211156109ca576109c9610934565b5b6109d382610923565b9050602081019050919050565b82818337600083830152505050565b6000610a026109fd846109af565b610994565b905082815260208101848484011115610a1e57610a1d61091e565b5b610a298482856109e0565b509392505050565b600082601f830112610a4657610a45610919565b5b8135610a568482602086016109ef565b91505092915050565b60008060008060808587031215610a7957610a786108d9565b5b6000610a8787828801610904565b9450506020610a9887828801610904565b935050604085013567ffffffffffffffff811115610ab957610ab86108de565b5b610ac587828801610a31565b925050606085013567ffffffffffffffff811115610ae657610ae56108de565b5b610af287828801610a31565b91505092959194509250565b610b07816108e3565b82525050565b6000602082019050610b226000830184610afe565b92915050565b600060208284031215610b3e57610b3d6108d9565b5b6000610b4c84828501610904565b91505092915050565b600073ffffffffffffffffffffffffffffffffffffffff82169050919050565b6000610b8082610b55565b9050919050565b610b9081610b75565b82525050565b600081519050919050565b600082825260208201905092915050565b60005b83811015610bd0578082015181840152602081019050610bb5565b60008484015250505050565b6000610be782610b96565b610bf18185610ba1565b9350610c01818560208601610bb2565b610c0a81610923565b840191505092915050565b600060e082019050610c2a600083018a610b87565b610c376020830189610b87565b610c446040830188610afe565b610c516060830187610afe565b8181036080830152610c638186610bdc565b905081810360a0830152610c778185610bdc565b9050610c8660c0830184610afe565b98975050505050505050565b7f4e487b7100000000000000000000000000000000000000000000000000000000600052602260045260246000fd5b60006002820490506001821680610cd957607f821691505b602082108103610cec57610ceb610c92565b5b50919050565b60008190508160005260206000209050919050565b60006020601f8301049050919050565b600082821b905092915050565b600060088302610d547fffffffffffffffffffffffffffffffffffffffffffffffffffffffffffffffff82610d17565b610d5e8683610d17565b95508019841693508086168417925050509392505050565b6000819050919050565b6000610d9b610d96610d91846108e3565b610d76565b6108e3565b9050919050565b6000819050919050565b610db583610d80565b610dc9610dc182610da2565b848454610d24565b825550505050565b600090565b610dde610dd1565b610de9818484610dac565b505050565b5b81811015610e0d57610e02600082610dd6565b600181019050610def565b5050565b601f821115610e5257610e2381610cf2565b610e2c84610d07565b81016020851015610e3b578190505b610e4f610e4785610d07565b830182610dee565b50505b505050565b600082821c905092915050565b6000610e7560001984600802610e57565b1980831691505092915050565b6000610e8e8383610e64565b9150826002028217905092915050565b610ea782610b96565b67ffffffffffffffff811115610ec057610ebf610934565b5b610eca8254610cc1565b610ed5828285610e11565b600060209050601f831160018114610f085760008415610ef6578287015190505b610f008582610e82565b865550610f68565b601f198416610f1686610cf2565b60005b82811015610f3e57848901518255600182019150602085019450602081019050610f19565b86831015610f5b5784890151610f57601f891682610e64565b8355505b6001600288020188555050505b505050505050565b7f4e487b7100000000000000000000000000000000000000000000000000000000600052601160045260246000fd5b6000610faa826108e3565b91507fffffffffffffffffffffffffffffffffffffffffffffffffffffffffffffffff8203610fdc57610fdb610f70565b5b600182019050919050565b6000604082019050610ffc6000830185610afe565b6110096020830184610afe565b9392505050565b7f4c6f616e206e6f7420617661696c61626c650000000000000000000000000000600082015250565b6000611046601283610ba1565b915061105182611010565b602082019050919050565b6000602082019050818103600083015261107581611039565b9050919050565b7f43616e6e6f742061636365707420796f7572206f776e206c6f616e0000000000600082015250565b60006110b2601b83610ba1565b91506110bd8261107c565b602082019050919050565b600060208201905081810360008301526110e1816110a5565b905091905056fea264697066735822122088acea54053078d2f835b59a2774148621c3c70af6f7b4f26eb7e84ec34f6cb464736f6c63430008110033",
  "immutableReferences": {},
  "source": "// SPDX-License-Identifier: MIT\r\npragma solidity ^0.8.17;\r\n\r\ncontract LoanManager {\r\n    struct Loan {\r\n        address lender;\r\n        address borrower;\r\n        uint256 amount;\r\n        uint256 termDays;\r\n        string purpose;\r\n        string repaymentFrequency;\r\n        uint256 status;  // 0: Requested, 1: Accepted, 2: Completed, 3: Defaulted\r\n    }\r\n\r\n    mapping(uint256 => Loan) public loans;\r\n    uint256 public loanCount;\r\n\r\n    event LoanRequested(uint256 indexed loanId, address indexed lender, uint256 amount, uint256 termDays);\r\n    event LoanAccepted(uint256 indexed loanId, address indexed borrower);\r\n\r\n    function requestLoan(\r\n        uint256 amount,\r\n        uint256 termDays,\r\n        string memory purpose,\r\n        string memory repaymentFrequency\r\n    ) public returns (uint256) {\r\n        uint256 loanId = loanCount;\r\n        loans[loanId] = Loan({\r\n            lender: msg.sender,\r\n            borrower: address(0),\r\n            amount: amount,\r\n            termDays: termDays,\r\n            purpose: purpose,\r\n            repaymentFrequency: repaymentFrequency,\r\n            status: 0\r\n        });\r\n        loanCount++;\r\n        emit LoanRequested(loanId, msg.sender, amount, termDays);\r\n        return loanId;\r\n    }\r\n\r\n    function acceptLoan(uint256 loanId) public {\r\n        require(loans[loanId].status == 0, \"Loan not available\");\r\n        require(loans[loanId].lender != msg.sender, \"Cannot accept your own loan\");\r\n        loans[loanId].borrower = msg.sender;\r\n        loans[loanId].status = 1;\r\n        emit LoanAccepted(loanId, msg.sender);\r\n    }\r\n\r\n    function getLoanCount() public view returns (uint256) {\r\n        return loanCount;\r\n    }\r\n\r\n    function getLoan(uint256 loanId) public view returns (\r\n        address lender,\r\n        address borrower,\r\n        uint256 amount,\r\n        uint256 termDays,\r\n        string memory purpose,\r\n        string memory repaymentFrequency,\r\n        uint256 status\r\n    ) {\r\n        Loan memory loan = loans[loanId];\r\n        return (\r\n            loan.lender,\r\n            loan.borrower,\r\n            loan.amount,\r\n            loan.termDays,\r\n            loan.purpose,\r\n            loan.repaymentFrequency,\r\n            loan.status\r\n        );\r\n    }\r\n}",
  "sourcePath": "C:\\Folder\\Decentralized-Finance-Lending-System\\Blockchain\\blockchain-lending\\terminal-defi-app\\contracts\\LoanManager.sol",
  "compiler": {
    "name": "solc",
    "version": "0.8.17+commit.8df45f5f.Emscripten.clang"
  },
  "schemaVersion": "3.4.16",
  "updatedAt": "2025-05-19T21:42:18.270Z",
  "networkType": "ethereum",
  "devdoc": {
    "kind": "dev",
    "methods": {},
    "version": 1
  },
  "userdoc": {
    "kind": "user",
    "methods": {},
    "version": 1
  }
}