{
  "contractName": "LoanManager",
  "abi": [
    {
      "anonymous": false,
      "inputs": [
        {
          "indexed": false,
          "internalType": "uint256",
          "name": "loanId",
          "type": "uint256"
        },
        {
          "indexed": false,
          "internalType": "address",
          "name": "borrower",
          "type": "address"
        }
      ],
      "name": "CollateralDeposited",
      "type": "event"
    },
    {
      "anonymous": false,
      "inputs": [
        {
          "indexed": false,
          "internalType": "uint256",
          "name": "loanId",
          "type": "uint256"
        },
        {
          "indexed": false,
          "internalType": "address",
          "name": "lender",
          "type": "address"
        }
      ],
      "name": "LoanAccepted",
      "type": "event"
    },
    {
      "anonymous": false,
      "inputs": [
        {
          "indexed": false,
          "internalType": "uint256",
          "name": "loanId",
          "type": "uint256"
        }
      ],
      "name": "LoanCompleted",
      "type": "event"
    },
    {
      "anonymous": false,
      "inputs": [
        {
          "indexed": false,
          "internalType": "uint256",
          "name": "loanId",
          "type": "uint256"
        },
        {
          "indexed": false,
          "internalType": "address",
          "name": "lender",
          "type": "address"
        }
      ],
      "name": "LoanFunded",
      "type": "event"
    },
    {
      "anonymous": false,
      "inputs": [
        {
          "indexed": false,
          "internalType": "uint256",
          "name": "loanId",
          "type": "uint256"
        },
        {
          "indexed": false,
          "internalType": "address",
          "name": "borrower",
          "type": "address"
        }
      ],
      "name": "LoanRequested",
      "type": "event"
    },
    {
      "inputs": [],
      "name": "collateralAmount",
      "outputs": [
        {
          "internalType": "uint256",
          "name": "",
          "type": "uint256"
        }
      ],
      "stateMutability": "view",
      "type": "function",
      "constant": true
    },
    {
      "inputs": [],
      "name": "interestRate",
      "outputs": [
        {
          "internalType": "uint256",
          "name": "",
          "type": "uint256"
        }
      ],
      "stateMutability": "view",
      "type": "function",
      "constant": true
    },
    {
      "inputs": [],
      "name": "loanCount",
      "outputs": [
        {
          "internalType": "uint256",
          "name": "",
          "type": "uint256"
        }
      ],
      "stateMutability": "view",
      "type": "function",
      "constant": true
    },
    {
      "inputs": [
        {
          "internalType": "uint256",
          "name": "",
          "type": "uint256"
        }
      ],
      "name": "loans",
      "outputs": [
        {
          "internalType": "uint256",
          "name": "id",
          "type": "uint256"
        },
        {
          "internalType": "address",
          "name": "borrower",
          "type": "address"
        },
        {
          "internalType": "address",
          "name": "lender",
          "type": "address"
        },
        {
          "internalType": "uint256",
          "name": "amount",
          "type": "uint256"
        },
        {
          "internalType": "uint256",
          "name": "termDays",
          "type": "uint256"
        },
        {
          "internalType": "string",
          "name": "purpose",
          "type": "string"
        },
        {
          "internalType": "string",
          "name": "repaymentFrequency",
          "type": "string"
        },
        {
          "internalType": "enum LoanManager.LoanStatus",
          "name": "status",
          "type": "uint8"
        }
      ],
      "stateMutability": "view",
      "type": "function",
      "constant": true
    },
    {
      "inputs": [
        {
          "internalType": "uint256",
          "name": "amount",
          "type": "uint256"
        },
        {
          "internalType": "uint256",
          "name": "termDays",
          "type": "uint256"
        },
        {
          "internalType": "string",
          "name": "purpose",
          "type": "string"
        },
        {
          "internalType": "string",
          "name": "repaymentFrequency",
          "type": "string"
        }
      ],
      "name": "requestLoan",
      "outputs": [],
      "stateMutability": "nonpayable",
      "type": "function"
    },
    {
      "inputs": [
        {
          "internalType": "uint256",
          "name": "loanId",
          "type": "uint256"
        }
      ],
      "name": "acceptLoan",
      "outputs": [],
      "stateMutability": "nonpayable",
      "type": "function"
    },
    {
      "inputs": [
        {
          "internalType": "uint256",
          "name": "loanId",
          "type": "uint256"
        }
      ],
      "name": "depositCollateral",
      "outputs": [],
      "stateMutability": "payable",
      "type": "function",
      "payable": true
    },
    {
      "inputs": [
        {
          "internalType": "uint256",
          "name": "loanId",
          "type": "uint256"
        }
      ],
      "name": "fundLoan",
      "outputs": [],
      "stateMutability": "payable",
      "type": "function",
      "payable": true
    },
    {
      "inputs": [],
      "name": "getLoanCount",
      "outputs": [
        {
          "internalType": "uint256",
          "name": "",
          "type": "uint256"
        }
      ],
      "stateMutability": "view",
      "type": "function",
      "constant": true
    },
    {
      "inputs": [
        {
          "internalType": "uint256",
          "name": "loanId",
          "type": "uint256"
        }
      ],
      "name": "getLoanBasic",
      "outputs": [
        {
          "internalType": "uint256",
          "name": "",
          "type": "uint256"
        },
        {
          "internalType": "address",
          "name": "",
          "type": "address"
        },
        {
          "internalType": "address",
          "name": "",
          "type": "address"
        },
        {
          "internalType": "uint256",
          "name": "",
          "type": "uint256"
        },
        {
          "internalType": "uint256",
          "name": "",
          "type": "uint256"
        },
        {
          "internalType": "uint8",
          "name": "",
          "type": "uint8"
        }
      ],
      "stateMutability": "view",
      "type": "function",
      "constant": true
    },
    {
      "inputs": [
        {
          "internalType": "uint256",
          "name": "loanId",
          "type": "uint256"
        }
      ],
      "name": "getLoanText",
      "outputs": [
        {
          "internalType": "string",
          "name": "",
          "type": "string"
        },
        {
          "internalType": "string",
          "name": "",
          "type": "string"
        }
      ],
      "stateMutability": "view",
      "type": "function",
      "constant": true
    }
  ],
  "bytecode": "0x60806040526103e85f5560056001553480156018575f5ffd5b50611d4e806100265f395ff3fe60806040526004361061009b575f3560e01c8063846b909a11610063578063846b909a1461019957806392d09ceb146101b5578063adfbe22f146101df578063bad4a01f14610207578063ce63094d14610223578063e1ec3c681461024d5761009b565b806307840c041461009f5780633d954703146100dc57806349cdbcd01461011d57806352196812146101455780637c3a00fd1461016f575b5f5ffd5b3480156100aa575f5ffd5b506100c560048036038101906100c09190611210565b610290565b6040516100d39291906112ab565b60405180910390f35b3480156100e7575f5ffd5b5061010260048036038101906100fd9190611210565b61053b565b60405161011496959493929190611349565b60405180910390f35b348015610128575f5ffd5b50610143600480360381019061013e91906114d4565b61081a565b005b348015610150575f5ffd5b50610159610a19565b6040516101669190611570565b60405180910390f35b34801561017a575f5ffd5b50610183610a22565b6040516101909190611570565b60405180910390f35b6101b360048036038101906101ae9190611210565b610a28565b005b3480156101c0575f5ffd5b506101c9610cb2565b6040516101d69190611570565b60405180910390f35b3480156101ea575f5ffd5b5061020560048036038101906102009190611210565b610cb7565b005b610221600480360381019061021c9190611210565b610e78565b005b34801561022e575f5ffd5b5061023761101d565b6040516102449190611570565b60405180910390f35b348015610258575f5ffd5b50610273600480360381019061026e9190611210565b611023565b6040516102879897969594939291906115fc565b60405180910390f35b60608060035483106102d7576040517f08c379a00000000000000000000000000000000000000000000000000000000081526004016102ce906116d0565b60405180910390fd5b5f600284815481106102ec576102eb6116ee565b5b905f5260205f209060080201604051806101000160405290815f8201548152602001600182015f9054906101000a900473ffffffffffffffffffffffffffffffffffffffff1673ffffffffffffffffffffffffffffffffffffffff1673ffffffffffffffffffffffffffffffffffffffff168152602001600282015f9054906101000a900473ffffffffffffffffffffffffffffffffffffffff1673ffffffffffffffffffffffffffffffffffffffff1673ffffffffffffffffffffffffffffffffffffffff16815260200160038201548152602001600482015481526020016005820180546103db90611748565b80601f016020809104026020016040519081016040528092919081815260200182805461040790611748565b80156104525780601f1061042957610100808354040283529160200191610452565b820191905f5260205f20905b81548152906001019060200180831161043557829003601f168201915b5050505050815260200160068201805461046b90611748565b80601f016020809104026020016040519081016040528092919081815260200182805461049790611748565b80156104e25780601f106104b9576101008083540402835291602001916104e2565b820191905f5260205f20905b8154815290600101906020018083116104c557829003601f168201915b50505050508152602001600782015f9054906101000a900460ff16600581111561050f5761050e611589565b5b600581111561052157610520611589565b5b8152505090508060a001518160c001519250925050915091565b5f5f5f5f5f5f6003548710610585576040517f08c379a000000000000000000000000000000000000000000000000000000000815260040161057c906116d0565b60405180910390fd5b5f6002888154811061059a576105996116ee565b5b905f5260205f209060080201604051806101000160405290815f8201548152602001600182015f9054906101000a900473ffffffffffffffffffffffffffffffffffffffff1673ffffffffffffffffffffffffffffffffffffffff1673ffffffffffffffffffffffffffffffffffffffff168152602001600282015f9054906101000a900473ffffffffffffffffffffffffffffffffffffffff1673ffffffffffffffffffffffffffffffffffffffff1673ffffffffffffffffffffffffffffffffffffffff168152602001600382015481526020016004820154815260200160058201805461068990611748565b80601f01602080910402602001604051908101604052809291908181526020018280546106b590611748565b80156107005780601f106106d757610100808354040283529160200191610700565b820191905f5260205f20905b8154815290600101906020018083116106e357829003601f168201915b5050505050815260200160068201805461071990611748565b80601f016020809104026020016040519081016040528092919081815260200182805461074590611748565b80156107905780601f1061076757610100808354040283529160200191610790565b820191905f5260205f20905b81548152906001019060200180831161077357829003601f168201915b50505050508152602001600782015f9054906101000a900460ff1660058111156107bd576107bc611589565b5b60058111156107cf576107ce611589565b5b815250509050805f015181602001518260400151836060015184608001518560e00151600581111561080457610803611589565b5b9650965096509650965096505091939550919395565b600260405180610100016040528060035481526020013373ffffffffffffffffffffffffffffffffffffffff1681526020015f73ffffffffffffffffffffffffffffffffffffffff1681526020018681526020018581526020018481526020018381526020015f600581111561089357610892611589565b5b815250908060018154018082558091505060019003905f5260205f2090600802015f909190919091505f820151815f01556020820151816001015f6101000a81548173ffffffffffffffffffffffffffffffffffffffff021916908373ffffffffffffffffffffffffffffffffffffffff1602179055506040820151816002015f6101000a81548173ffffffffffffffffffffffffffffffffffffffff021916908373ffffffffffffffffffffffffffffffffffffffff160217905550606082015181600301556080820151816004015560a08201518160050190816109799190611918565b5060c082015181600601908161098f9190611918565b5060e0820151816007015f6101000a81548160ff021916908360058111156109ba576109b9611589565b5b021790555050507fb7401c74d1dadd9b1c5778044555b38bcde050d7371b0e27212cfe1c418febcd600354336040516109f49291906119e7565b60405180910390a160035f815480929190610a0e90611a3b565b919050555050505050565b5f600354905090565b60015481565b6003548110610a6c576040517f08c379a0000000000000000000000000000000000000000000000000000000008152600401610a63906116d0565b60405180910390fd5b5f60028281548110610a8157610a806116ee565b5b905f5260205f2090600802019050806002015f9054906101000a900473ffffffffffffffffffffffffffffffffffffffff1673ffffffffffffffffffffffffffffffffffffffff163373ffffffffffffffffffffffffffffffffffffffff1614610b20576040517f08c379a0000000000000000000000000000000000000000000000000000000008152600401610b1790611acc565b60405180910390fd5b60026005811115610b3457610b33611589565b5b816007015f9054906101000a900460ff166005811115610b5757610b56611589565b5b14610b97576040517f08c379a0000000000000000000000000000000000000000000000000000000008152600401610b8e90611b34565b60405180910390fd5b8060030154341015610bde576040517f08c379a0000000000000000000000000000000000000000000000000000000008152600401610bd590611b9c565b60405180910390fd5b806001015f9054906101000a900473ffffffffffffffffffffffffffffffffffffffff1673ffffffffffffffffffffffffffffffffffffffff166108fc826003015490811502906040515f60405180830381858888f19350505050158015610c48573d5f5f3e3d5ffd5b506003816007015f6101000a81548160ff02191690836005811115610c7057610c6f611589565b5b02179055507f15feab5d3eb17171632762cf769709a315dd15f487a556c0dfb8a259c8f186cc8233604051610ca69291906119e7565b60405180910390a15050565b5f5481565b6003548110610cfb576040517f08c379a0000000000000000000000000000000000000000000000000000000008152600401610cf2906116d0565b60405180910390fd5b5f6005811115610d0e57610d0d611589565b5b60028281548110610d2257610d216116ee565b5b905f5260205f2090600802016007015f9054906101000a900460ff166005811115610d5057610d4f611589565b5b14610d90576040517f08c379a0000000000000000000000000000000000000000000000000000000008152600401610d8790611c04565b60405180910390fd5b3360028281548110610da557610da46116ee565b5b905f5260205f2090600802016002015f6101000a81548173ffffffffffffffffffffffffffffffffffffffff021916908373ffffffffffffffffffffffffffffffffffffffff160217905550600160028281548110610e0757610e066116ee565b5b905f5260205f2090600802016007015f6101000a81548160ff02191690836005811115610e3757610e36611589565b5b02179055507f3ad02261725390771e704d06848ed8e414d628daf1b8dbffe111f437c848d6208133604051610e6d9291906119e7565b60405180910390a150565b6003548110610ebc576040517f08c379a0000000000000000000000000000000000000000000000000000000008152600401610eb3906116d0565b60405180910390fd5b5f60028281548110610ed157610ed06116ee565b5b905f5260205f2090600802019050806001015f9054906101000a900473ffffffffffffffffffffffffffffffffffffffff1673ffffffffffffffffffffffffffffffffffffffff163373ffffffffffffffffffffffffffffffffffffffff1614610f70576040517f08c379a0000000000000000000000000000000000000000000000000000000008152600401610f6790611c92565b60405180910390fd5b5f54341015610fb4576040517f08c379a0000000000000000000000000000000000000000000000000000000008152600401610fab90611cfa565b60405180910390fd5b6002816007015f6101000a81548160ff02191690836005811115610fdb57610fda611589565b5b02179055507f05cbeb5c42e202da72c29b2ad639ea547377301fa4ac68c3ecf29421683d836382336040516110119291906119e7565b60405180910390a15050565b60035481565b60028181548110611032575f80fd5b905f5260205f2090600802015f91509050805f015490806001015f9054906101000a900473ffffffffffffffffffffffffffffffffffffffff1690806002015f9054906101000a900473ffffffffffffffffffffffffffffffffffffffff16908060030154908060040154908060050180546110ad90611748565b80601f01602080910402602001604051908101604052809291908181526020018280546110d990611748565b80156111245780601f106110fb57610100808354040283529160200191611124565b820191905f5260205f20905b81548152906001019060200180831161110757829003601f168201915b50505050509080600601805461113990611748565b80601f016020809104026020016040519081016040528092919081815260200182805461116590611748565b80156111b05780601f10611187576101008083540402835291602001916111b0565b820191905f5260205f20905b81548152906001019060200180831161119357829003601f168201915b505050505090806007015f9054906101000a900460ff16905088565b5f604051905090565b5f5ffd5b5f5ffd5b5f819050919050565b6111ef816111dd565b81146111f9575f5ffd5b50565b5f8135905061120a816111e6565b92915050565b5f60208284031215611225576112246111d5565b5b5f611232848285016111fc565b91505092915050565b5f81519050919050565b5f82825260208201905092915050565b8281835e5f83830152505050565b5f601f19601f8301169050919050565b5f61127d8261123b565b6112878185611245565b9350611297818560208601611255565b6112a081611263565b840191505092915050565b5f6040820190508181035f8301526112c38185611273565b905081810360208301526112d78184611273565b90509392505050565b6112e9816111dd565b82525050565b5f73ffffffffffffffffffffffffffffffffffffffff82169050919050565b5f611318826112ef565b9050919050565b6113288161130e565b82525050565b5f60ff82169050919050565b6113438161132e565b82525050565b5f60c08201905061135c5f8301896112e0565b611369602083018861131f565b611376604083018761131f565b61138360608301866112e0565b61139060808301856112e0565b61139d60a083018461133a565b979650505050505050565b5f5ffd5b5f5ffd5b7f4e487b71000000000000000000000000000000000000000000000000000000005f52604160045260245ffd5b6113e682611263565b810181811067ffffffffffffffff82111715611405576114046113b0565b5b80604052505050565b5f6114176111cc565b905061142382826113dd565b919050565b5f67ffffffffffffffff821115611442576114416113b0565b5b61144b82611263565b9050602081019050919050565b828183375f83830152505050565b5f61147861147384611428565b61140e565b905082815260208101848484011115611494576114936113ac565b5b61149f848285611458565b509392505050565b5f82601f8301126114bb576114ba6113a8565b5b81356114cb848260208601611466565b91505092915050565b5f5f5f5f608085870312156114ec576114eb6111d5565b5b5f6114f9878288016111fc565b945050602061150a878288016111fc565b935050604085013567ffffffffffffffff81111561152b5761152a6111d9565b5b611537878288016114a7565b925050606085013567ffffffffffffffff811115611558576115576111d9565b5b611564878288016114a7565b91505092959194509250565b5f6020820190506115835f8301846112e0565b92915050565b7f4e487b71000000000000000000000000000000000000000000000000000000005f52602160045260245ffd5b600681106115c7576115c6611589565b5b50565b5f8190506115d7826115b6565b919050565b5f6115e6826115ca565b9050919050565b6115f6816115dc565b82525050565b5f610100820190506116105f83018b6112e0565b61161d602083018a61131f565b61162a604083018961131f565b61163760608301886112e0565b61164460808301876112e0565b81810360a08301526116568186611273565b905081810360c083015261166a8185611273565b905061167960e08301846115ed565b9998505050505050505050565b7f496e76616c6964206c6f616e20494400000000000000000000000000000000005f82015250565b5f6116ba600f83611245565b91506116c582611686565b602082019050919050565b5f6020820190508181035f8301526116e7816116ae565b9050919050565b7f4e487b71000000000000000000000000000000000000000000000000000000005f52603260045260245ffd5b7f4e487b71000000000000000000000000000000000000000000000000000000005f52602260045260245ffd5b5f600282049050600182168061175f57607f821691505b6020821081036117725761177161171b565b5b50919050565b5f819050815f5260205f209050919050565b5f6020601f8301049050919050565b5f82821b905092915050565b5f600883026117d47fffffffffffffffffffffffffffffffffffffffffffffffffffffffffffffffff82611799565b6117de8683611799565b95508019841693508086168417925050509392505050565b5f819050919050565b5f61181961181461180f846111dd565b6117f6565b6111dd565b9050919050565b5f819050919050565b611832836117ff565b61184661183e82611820565b8484546117a5565b825550505050565b5f5f905090565b61185d61184e565b611868818484611829565b505050565b5b8181101561188b576118805f82611855565b60018101905061186e565b5050565b601f8211156118d0576118a181611778565b6118aa8461178a565b810160208510156118b9578190505b6118cd6118c58561178a565b83018261186d565b50505b505050565b5f82821c905092915050565b5f6118f05f19846008026118d5565b1980831691505092915050565b5f61190883836118e1565b9150826002028217905092915050565b6119218261123b565b67ffffffffffffffff81111561193a576119396113b0565b5b6119448254611748565b61194f82828561188f565b5f60209050601f831160018114611980575f841561196e578287015190505b61197885826118fd565b8655506119df565b601f19841661198e86611778565b5f5b828110156119b557848901518255600182019150602085019450602081019050611990565b868310156119d257848901516119ce601f8916826118e1565b8355505b6001600288020188555050505b505050505050565b5f6040820190506119fa5f8301856112e0565b611a07602083018461131f565b9392505050565b7f4e487b71000000000000000000000000000000000000000000000000000000005f52601160045260245ffd5b5f611a45826111dd565b91507fffffffffffffffffffffffffffffffffffffffffffffffffffffffffffffffff8203611a7757611a76611a0e565b5b600182019050919050565b7f4f6e6c79206c656e6465722063616e2066756e6420746865206c6f616e0000005f82015250565b5f611ab6601d83611245565b9150611ac182611a82565b602082019050919050565b5f6020820190508181035f830152611ae381611aaa565b9050919050565b7f436f6c6c61746572616c206e6f74206465706f736974656400000000000000005f82015250565b5f611b1e601883611245565b9150611b2982611aea565b602082019050919050565b5f6020820190508181035f830152611b4b81611b12565b9050919050565b7f496e73756666696369656e742066756e647300000000000000000000000000005f82015250565b5f611b86601283611245565b9150611b9182611b52565b602082019050919050565b5f6020820190508181035f830152611bb381611b7a565b9050919050565b7f4c6f616e206973206e6f7420617661696c61626c6500000000000000000000005f82015250565b5f611bee601583611245565b9150611bf982611bba565b602082019050919050565b5f6020820190508181035f830152611c1b81611be2565b9050919050565b7f4f6e6c7920626f72726f7765722063616e206465706f73697420636f6c6c61745f8201527f6572616c00000000000000000000000000000000000000000000000000000000602082015250565b5f611c7c602483611245565b9150611c8782611c22565b604082019050919050565b5f6020820190508181035f830152611ca981611c70565b9050919050565b7f496e73756666696369656e7420636f6c6c61746572616c0000000000000000005f82015250565b5f611ce4601783611245565b9150611cef82611cb0565b602082019050919050565b5f6020820190508181035f830152611d1181611cd8565b905091905056fea2646970667358221220a8acf852666ef1af28c586caa60f16d7189944713a7bbc3cf42a535fbc6026c464736f6c634300081d0033",
  "immutableReferences": {},
  "source": "// SPDX-License-Identifier: MIT\r\npragma solidity ^0.8.17;\r\n\r\ncontract LoanManager {\r\n    uint public collateralAmount = 1000; // Example collateral (PHP equivalent)\r\n    uint public interestRate = 5; // 5%\r\n\r\n    enum LoanStatus { Requested, Accepted, CollateralDeposited, Funded, Completed, Cancelled }\r\n\r\n    struct Loan {\r\n        uint id;\r\n        address borrower;\r\n        address lender;\r\n        uint amount;\r\n        uint termDays;\r\n        string purpose;\r\n        string repaymentFrequency;\r\n        LoanStatus status;\r\n    }\r\n\r\n    Loan[] public loans;\r\n    uint public loanCount;\r\n\r\n    event LoanRequested(uint loanId, address borrower);\r\n    event LoanAccepted(uint loanId, address lender);\r\n    event CollateralDeposited(uint loanId, address borrower);\r\n    event LoanFunded(uint loanId, address lender);\r\n    event LoanCompleted(uint loanId);\r\n\r\n    // Request a new loan\r\n    function requestLoan(\r\n        uint amount,\r\n        uint termDays,\r\n        string memory purpose,\r\n        string memory repaymentFrequency\r\n    ) public {\r\n        loans.push(Loan({\r\n            id: loanCount,\r\n            borrower: msg.sender,\r\n            lender: address(0),\r\n            amount: amount,\r\n            termDays: termDays,\r\n            purpose: purpose,\r\n            repaymentFrequency: repaymentFrequency,\r\n            status: LoanStatus.Requested\r\n        }));\r\n\r\n        emit LoanRequested(loanCount, msg.sender);\r\n        loanCount++;\r\n    }\r\n\r\n    // Accept a loan request\r\n    function acceptLoan(uint loanId) public {\r\n        require(loanId < loanCount, \"Invalid loan ID\");\r\n        require(loans[loanId].status == LoanStatus.Requested, \"Loan is not available\");\r\n        loans[loanId].lender = msg.sender;\r\n        loans[loanId].status = LoanStatus.Accepted;\r\n\r\n        emit LoanAccepted(loanId, msg.sender);\r\n    }\r\n\r\n    // Deposit collateral by borrower\r\n    function depositCollateral(uint loanId) public payable {\r\n        require(loanId < loanCount, \"Invalid loan ID\");\r\n        Loan storage loan = loans[loanId];\r\n        require(msg.sender == loan.borrower, \"Only borrower can deposit collateral\");\r\n        require(msg.value >= collateralAmount, \"Insufficient collateral\");\r\n\r\n        loan.status = LoanStatus.CollateralDeposited;\r\n        emit CollateralDeposited(loanId, msg.sender);\r\n    }\r\n\r\n    // Fund the loan by lender\r\n    function fundLoan(uint loanId) public payable {\r\n        require(loanId < loanCount, \"Invalid loan ID\");\r\n        Loan storage loan = loans[loanId];\r\n        require(msg.sender == loan.lender, \"Only lender can fund the loan\");\r\n        require(loan.status == LoanStatus.CollateralDeposited, \"Collateral not deposited\");\r\n        require(msg.value >= loan.amount, \"Insufficient funds\");\r\n\r\n        payable(loan.borrower).transfer(loan.amount);\r\n        loan.status = LoanStatus.Funded;\r\n\r\n        emit LoanFunded(loanId, msg.sender);\r\n    }\r\n\r\n    // Get total loan count\r\n    function getLoanCount() public view returns (uint) {\r\n        return loanCount;\r\n    }\r\n\r\n    // Get numeric fields of loan\r\n    function getLoanBasic(uint loanId) public view returns (\r\n        uint, address, address, uint, uint, uint8\r\n    ) {\r\n        require(loanId < loanCount, \"Invalid loan ID\");\r\n        Loan memory l = loans[loanId];\r\n        return (\r\n            l.id,\r\n            l.borrower,\r\n            l.lender,\r\n            l.amount,\r\n            l.termDays,\r\n            uint8(l.status)\r\n        );\r\n    }\r\n\r\n    // Get string fields of loan\r\n    function getLoanText(uint loanId) public view returns (\r\n        string memory, string memory\r\n    ) {\r\n        require(loanId < loanCount, \"Invalid loan ID\");\r\n        Loan memory l = loans[loanId];\r\n        return (l.purpose, l.repaymentFrequency);\r\n    }\r\n}\r\n",
  "sourcePath": "C:\\Folder\\Decentralized-Finance-Lending-System\\Blockchain\\blockchain-lending\\contracts\\LoanManager.sol",
  "compiler": {
    "name": "solc",
    "version": "0.8.29+commit.ab55807c.Emscripten.clang"
  },
  "schemaVersion": "3.4.16",
  "updatedAt": "2025-05-06T05:34:54.279Z",
  "networkType": "ethereum",
  "devdoc": {
    "kind": "dev",
    "methods": {},
    "version": 1
  },
  "userdoc": {
    "kind": "user",
    "methods": {},
    "version": 1
  }
}