{
  "contractName": "LoanManager",
  "abi": [
    {
      "anonymous": false,
      "inputs": [
        {
          "indexed": false,
          "internalType": "uint256",
          "name": "loanId",
          "type": "uint256"
        },
        {
          "indexed": false,
          "internalType": "address",
          "name": "borrower",
          "type": "address"
        }
      ],
      "name": "CollateralDeposited",
      "type": "event"
    },
    {
      "anonymous": false,
      "inputs": [
        {
          "indexed": false,
          "internalType": "uint256",
          "name": "loanId",
          "type": "uint256"
        },
        {
          "indexed": false,
          "internalType": "address",
          "name": "lender",
          "type": "address"
        }
      ],
      "name": "LoanAccepted",
      "type": "event"
    },
    {
      "anonymous": false,
      "inputs": [
        {
          "indexed": false,
          "internalType": "uint256",
          "name": "loanId",
          "type": "uint256"
        }
      ],
      "name": "LoanCompleted",
      "type": "event"
    },
    {
      "anonymous": false,
      "inputs": [
        {
          "indexed": false,
          "internalType": "uint256",
          "name": "loanId",
          "type": "uint256"
        },
        {
          "indexed": false,
          "internalType": "address",
          "name": "lender",
          "type": "address"
        }
      ],
      "name": "LoanFunded",
      "type": "event"
    },
    {
      "anonymous": false,
      "inputs": [
        {
          "indexed": false,
          "internalType": "uint256",
          "name": "loanId",
          "type": "uint256"
        },
        {
          "indexed": false,
          "internalType": "address",
          "name": "borrower",
          "type": "address"
        }
      ],
      "name": "LoanRequested",
      "type": "event"
    },
    {
      "inputs": [],
      "name": "collateralAmount",
      "outputs": [
        {
          "internalType": "uint256",
          "name": "",
          "type": "uint256"
        }
      ],
      "stateMutability": "view",
      "type": "function",
      "constant": true
    },
    {
      "inputs": [],
      "name": "interestRate",
      "outputs": [
        {
          "internalType": "uint256",
          "name": "",
          "type": "uint256"
        }
      ],
      "stateMutability": "view",
      "type": "function",
      "constant": true
    },
    {
      "inputs": [],
      "name": "loanCount",
      "outputs": [
        {
          "internalType": "uint256",
          "name": "",
          "type": "uint256"
        }
      ],
      "stateMutability": "view",
      "type": "function",
      "constant": true
    },
    {
      "inputs": [
        {
          "internalType": "uint256",
          "name": "",
          "type": "uint256"
        }
      ],
      "name": "loans",
      "outputs": [
        {
          "internalType": "uint256",
          "name": "id",
          "type": "uint256"
        },
        {
          "internalType": "address",
          "name": "borrower",
          "type": "address"
        },
        {
          "internalType": "address",
          "name": "lender",
          "type": "address"
        },
        {
          "internalType": "uint256",
          "name": "amount",
          "type": "uint256"
        },
        {
          "internalType": "uint256",
          "name": "termDays",
          "type": "uint256"
        },
        {
          "internalType": "string",
          "name": "purpose",
          "type": "string"
        },
        {
          "internalType": "string",
          "name": "repaymentFrequency",
          "type": "string"
        },
        {
          "internalType": "enum LoanManager.LoanStatus",
          "name": "status",
          "type": "uint8"
        }
      ],
      "stateMutability": "view",
      "type": "function",
      "constant": true
    },
    {
      "inputs": [
        {
          "internalType": "uint256",
          "name": "amount",
          "type": "uint256"
        },
        {
          "internalType": "uint256",
          "name": "termDays",
          "type": "uint256"
        },
        {
          "internalType": "string",
          "name": "purpose",
          "type": "string"
        },
        {
          "internalType": "string",
          "name": "repaymentFrequency",
          "type": "string"
        }
      ],
      "name": "requestLoan",
      "outputs": [],
      "stateMutability": "nonpayable",
      "type": "function"
    },
    {
      "inputs": [
        {
          "internalType": "uint256",
          "name": "loanId",
          "type": "uint256"
        }
      ],
      "name": "acceptLoan",
      "outputs": [],
      "stateMutability": "nonpayable",
      "type": "function"
    },
    {
      "inputs": [
        {
          "internalType": "uint256",
          "name": "loanId",
          "type": "uint256"
        }
      ],
      "name": "depositCollateral",
      "outputs": [],
      "stateMutability": "payable",
      "type": "function",
      "payable": true
    },
    {
      "inputs": [
        {
          "internalType": "uint256",
          "name": "loanId",
          "type": "uint256"
        }
      ],
      "name": "fundLoan",
      "outputs": [],
      "stateMutability": "payable",
      "type": "function",
      "payable": true
    },
    {
      "inputs": [],
      "name": "getLoanCount",
      "outputs": [
        {
          "internalType": "uint256",
          "name": "",
          "type": "uint256"
        }
      ],
      "stateMutability": "view",
      "type": "function",
      "constant": true
    },
    {
      "inputs": [
        {
          "internalType": "uint256",
          "name": "loanId",
          "type": "uint256"
        }
      ],
      "name": "getLoanBasic",
      "outputs": [
        {
          "internalType": "uint256",
          "name": "",
          "type": "uint256"
        },
        {
          "internalType": "address",
          "name": "",
          "type": "address"
        },
        {
          "internalType": "address",
          "name": "",
          "type": "address"
        },
        {
          "internalType": "uint256",
          "name": "",
          "type": "uint256"
        },
        {
          "internalType": "uint256",
          "name": "",
          "type": "uint256"
        },
        {
          "internalType": "uint8",
          "name": "",
          "type": "uint8"
        }
      ],
      "stateMutability": "view",
      "type": "function",
      "constant": true
    },
    {
      "inputs": [
        {
          "internalType": "uint256",
          "name": "loanId",
          "type": "uint256"
        }
      ],
      "name": "getLoanText",
      "outputs": [
        {
          "internalType": "string",
          "name": "",
          "type": "string"
        },
        {
          "internalType": "string",
          "name": "",
          "type": "string"
        }
      ],
      "stateMutability": "view",
      "type": "function",
      "constant": true
    }
  ],
  "bytecode": "0x60806040526103e85f5560056001553480156018575f5ffd5b50611a17806100265f395ff3fe60806040526004361061009b575f3560e01c8063846b909a11610063578063846b909a1461019957806392d09ceb146101b5578063adfbe22f146101df578063bad4a01f14610207578063ce63094d14610223578063e1ec3c681461024d5761009b565b806307840c041461009f5780633d954703146100dc57806349cdbcd01461011d57806352196812146101455780637c3a00fd1461016f575b5f5ffd5b3480156100aa575f5ffd5b506100c560048036038101906100c09190610ed9565b610290565b6040516100d3929190610f74565b60405180910390f35b3480156100e7575f5ffd5b5061010260048036038101906100fd9190610ed9565b610420565b60405161011496959493929190611012565b60405180910390f35b348015610128575f5ffd5b50610143600480360381019061013e919061119d565b61051c565b005b348015610150575f5ffd5b5061015961071b565b6040516101669190611239565b60405180910390f35b34801561017a575f5ffd5b50610183610724565b6040516101909190611239565b60405180910390f35b6101b360048036038101906101ae9190610ed9565b61072a565b005b3480156101c0575f5ffd5b506101c96109b4565b6040516101d69190611239565b60405180910390f35b3480156101ea575f5ffd5b5061020560048036038101906102009190610ed9565b6109b9565b005b610221600480360381019061021c9190610ed9565b610b41565b005b34801561022e575f5ffd5b50610237610ce6565b6040516102449190611239565b60405180910390f35b348015610258575f5ffd5b50610273600480360381019061026e9190610ed9565b610cec565b6040516102879897969594939291906112c5565b60405180910390f35b60608060035483106102d7576040517f08c379a00000000000000000000000000000000000000000000000000000000081526004016102ce90611399565b60405180910390fd5b5f600284815481106102ec576102eb6113b7565b5b905f5260205f2090600802019050806005018160060181805461030e90611411565b80601f016020809104026020016040519081016040528092919081815260200182805461033a90611411565b80156103855780601f1061035c57610100808354040283529160200191610385565b820191905f5260205f20905b81548152906001019060200180831161036857829003601f168201915b5050505050915080805461039890611411565b80601f01602080910402602001604051908101604052809291908181526020018280546103c490611411565b801561040f5780601f106103e65761010080835404028352916020019161040f565b820191905f5260205f20905b8154815290600101906020018083116103f257829003601f168201915b505050505090509250925050915091565b5f5f5f5f5f5f600354871061046a576040517f08c379a000000000000000000000000000000000000000000000000000000000815260040161046190611399565b60405180910390fd5b5f6002888154811061047f5761047e6113b7565b5b905f5260205f2090600802019050805f0154816001015f9054906101000a900473ffffffffffffffffffffffffffffffffffffffff16826002015f9054906101000a900473ffffffffffffffffffffffffffffffffffffffff1683600301548460040154856007015f9054906101000a900460ff16600581111561050657610505611252565b5b9650965096509650965096505091939550919395565b600260405180610100016040528060035481526020013373ffffffffffffffffffffffffffffffffffffffff1681526020015f73ffffffffffffffffffffffffffffffffffffffff1681526020018681526020018581526020018481526020018381526020015f600581111561059557610594611252565b5b815250908060018154018082558091505060019003905f5260205f2090600802015f909190919091505f820151815f01556020820151816001015f6101000a81548173ffffffffffffffffffffffffffffffffffffffff021916908373ffffffffffffffffffffffffffffffffffffffff1602179055506040820151816002015f6101000a81548173ffffffffffffffffffffffffffffffffffffffff021916908373ffffffffffffffffffffffffffffffffffffffff160217905550606082015181600301556080820151816004015560a082015181600501908161067b91906115e1565b5060c082015181600601908161069191906115e1565b5060e0820151816007015f6101000a81548160ff021916908360058111156106bc576106bb611252565b5b021790555050507fb7401c74d1dadd9b1c5778044555b38bcde050d7371b0e27212cfe1c418febcd600354336040516106f69291906116b0565b60405180910390a160035f81548092919061071090611704565b919050555050505050565b5f600354905090565b60015481565b600354811061076e576040517f08c379a000000000000000000000000000000000000000000000000000000000815260040161076590611399565b60405180910390fd5b5f60028281548110610783576107826113b7565b5b905f5260205f2090600802019050806002015f9054906101000a900473ffffffffffffffffffffffffffffffffffffffff1673ffffffffffffffffffffffffffffffffffffffff163373ffffffffffffffffffffffffffffffffffffffff1614610822576040517f08c379a000000000000000000000000000000000000000000000000000000000815260040161081990611795565b60405180910390fd5b6002600581111561083657610835611252565b5b816007015f9054906101000a900460ff16600581111561085957610858611252565b5b14610899576040517f08c379a0000000000000000000000000000000000000000000000000000000008152600401610890906117fd565b60405180910390fd5b80600301543410156108e0576040517f08c379a00000000000000000000000000000000000000000000000000000000081526004016108d790611865565b60405180910390fd5b806001015f9054906101000a900473ffffffffffffffffffffffffffffffffffffffff1673ffffffffffffffffffffffffffffffffffffffff166108fc826003015490811502906040515f60405180830381858888f1935050505015801561094a573d5f5f3e3d5ffd5b506003816007015f6101000a81548160ff0219169083600581111561097257610971611252565b5b02179055507f15feab5d3eb17171632762cf769709a315dd15f487a556c0dfb8a259c8f186cc82336040516109a89291906116b0565b60405180910390a15050565b5f5481565b60035481106109fd576040517f08c379a00000000000000000000000000000000000000000000000000000000081526004016109f490611399565b60405180910390fd5b5f60028281548110610a1257610a116113b7565b5b905f5260205f20906008020190505f6005811115610a3357610a32611252565b5b816007015f9054906101000a900460ff166005811115610a5657610a55611252565b5b14610a96576040517f08c379a0000000000000000000000000000000000000000000000000000000008152600401610a8d906118cd565b60405180910390fd5b33816002015f6101000a81548173ffffffffffffffffffffffffffffffffffffffff021916908373ffffffffffffffffffffffffffffffffffffffff1602179055506001816007015f6101000a81548160ff02191690836005811115610aff57610afe611252565b5b02179055507f3ad02261725390771e704d06848ed8e414d628daf1b8dbffe111f437c848d6208233604051610b359291906116b0565b60405180910390a15050565b6003548110610b85576040517f08c379a0000000000000000000000000000000000000000000000000000000008152600401610b7c90611399565b60405180910390fd5b5f60028281548110610b9a57610b996113b7565b5b905f5260205f2090600802019050806001015f9054906101000a900473ffffffffffffffffffffffffffffffffffffffff1673ffffffffffffffffffffffffffffffffffffffff163373ffffffffffffffffffffffffffffffffffffffff1614610c39576040517f08c379a0000000000000000000000000000000000000000000000000000000008152600401610c309061195b565b60405180910390fd5b5f54341015610c7d576040517f08c379a0000000000000000000000000000000000000000000000000000000008152600401610c74906119c3565b60405180910390fd5b6002816007015f6101000a81548160ff02191690836005811115610ca457610ca3611252565b5b02179055507f05cbeb5c42e202da72c29b2ad639ea547377301fa4ac68c3ecf29421683d83638233604051610cda9291906116b0565b60405180910390a15050565b60035481565b60028181548110610cfb575f80fd5b905f5260205f2090600802015f91509050805f015490806001015f9054906101000a900473ffffffffffffffffffffffffffffffffffffffff1690806002015f9054906101000a900473ffffffffffffffffffffffffffffffffffffffff1690806003015490806004015490806005018054610d7690611411565b80601f0160208091040260200160405190810160405280929190818152602001828054610da290611411565b8015610ded5780601f10610dc457610100808354040283529160200191610ded565b820191905f5260205f20905b815481529060010190602001808311610dd057829003601f168201915b505050505090806006018054610e0290611411565b80601f0160208091040260200160405190810160405280929190818152602001828054610e2e90611411565b8015610e795780601f10610e5057610100808354040283529160200191610e79565b820191905f5260205f20905b815481529060010190602001808311610e5c57829003601f168201915b505050505090806007015f9054906101000a900460ff16905088565b5f604051905090565b5f5ffd5b5f5ffd5b5f819050919050565b610eb881610ea6565b8114610ec2575f5ffd5b50565b5f81359050610ed381610eaf565b92915050565b5f60208284031215610eee57610eed610e9e565b5b5f610efb84828501610ec5565b91505092915050565b5f81519050919050565b5f82825260208201905092915050565b8281835e5f83830152505050565b5f601f19601f8301169050919050565b5f610f4682610f04565b610f508185610f0e565b9350610f60818560208601610f1e565b610f6981610f2c565b840191505092915050565b5f6040820190508181035f830152610f8c8185610f3c565b90508181036020830152610fa08184610f3c565b90509392505050565b610fb281610ea6565b82525050565b5f73ffffffffffffffffffffffffffffffffffffffff82169050919050565b5f610fe182610fb8565b9050919050565b610ff181610fd7565b82525050565b5f60ff82169050919050565b61100c81610ff7565b82525050565b5f60c0820190506110255f830189610fa9565b6110326020830188610fe8565b61103f6040830187610fe8565b61104c6060830186610fa9565b6110596080830185610fa9565b61106660a0830184611003565b979650505050505050565b5f5ffd5b5f5ffd5b7f4e487b71000000000000000000000000000000000000000000000000000000005f52604160045260245ffd5b6110af82610f2c565b810181811067ffffffffffffffff821117156110ce576110cd611079565b5b80604052505050565b5f6110e0610e95565b90506110ec82826110a6565b919050565b5f67ffffffffffffffff82111561110b5761110a611079565b5b61111482610f2c565b9050602081019050919050565b828183375f83830152505050565b5f61114161113c846110f1565b6110d7565b90508281526020810184848401111561115d5761115c611075565b5b611168848285611121565b509392505050565b5f82601f83011261118457611183611071565b5b813561119484826020860161112f565b91505092915050565b5f5f5f5f608085870312156111b5576111b4610e9e565b5b5f6111c287828801610ec5565b94505060206111d387828801610ec5565b935050604085013567ffffffffffffffff8111156111f4576111f3610ea2565b5b61120087828801611170565b925050606085013567ffffffffffffffff81111561122157611220610ea2565b5b61122d87828801611170565b91505092959194509250565b5f60208201905061124c5f830184610fa9565b92915050565b7f4e487b71000000000000000000000000000000000000000000000000000000005f52602160045260245ffd5b600681106112905761128f611252565b5b50565b5f8190506112a08261127f565b919050565b5f6112af82611293565b9050919050565b6112bf816112a5565b82525050565b5f610100820190506112d95f83018b610fa9565b6112e6602083018a610fe8565b6112f36040830189610fe8565b6113006060830188610fa9565b61130d6080830187610fa9565b81810360a083015261131f8186610f3c565b905081810360c08301526113338185610f3c565b905061134260e08301846112b6565b9998505050505050505050565b7f496e76616c6964206c6f616e20494400000000000000000000000000000000005f82015250565b5f611383600f83610f0e565b915061138e8261134f565b602082019050919050565b5f6020820190508181035f8301526113b081611377565b9050919050565b7f4e487b71000000000000000000000000000000000000000000000000000000005f52603260045260245ffd5b7f4e487b71000000000000000000000000000000000000000000000000000000005f52602260045260245ffd5b5f600282049050600182168061142857607f821691505b60208210810361143b5761143a6113e4565b5b50919050565b5f819050815f5260205f209050919050565b5f6020601f8301049050919050565b5f82821b905092915050565b5f6008830261149d7fffffffffffffffffffffffffffffffffffffffffffffffffffffffffffffffff82611462565b6114a78683611462565b95508019841693508086168417925050509392505050565b5f819050919050565b5f6114e26114dd6114d884610ea6565b6114bf565b610ea6565b9050919050565b5f819050919050565b6114fb836114c8565b61150f611507826114e9565b84845461146e565b825550505050565b5f5f905090565b611526611517565b6115318184846114f2565b505050565b5b81811015611554576115495f8261151e565b600181019050611537565b5050565b601f8211156115995761156a81611441565b61157384611453565b81016020851015611582578190505b61159661158e85611453565b830182611536565b50505b505050565b5f82821c905092915050565b5f6115b95f198460080261159e565b1980831691505092915050565b5f6115d183836115aa565b9150826002028217905092915050565b6115ea82610f04565b67ffffffffffffffff81111561160357611602611079565b5b61160d8254611411565b611618828285611558565b5f60209050601f831160018114611649575f8415611637578287015190505b61164185826115c6565b8655506116a8565b601f19841661165786611441565b5f5b8281101561167e57848901518255600182019150602085019450602081019050611659565b8683101561169b5784890151611697601f8916826115aa565b8355505b6001600288020188555050505b505050505050565b5f6040820190506116c35f830185610fa9565b6116d06020830184610fe8565b9392505050565b7f4e487b71000000000000000000000000000000000000000000000000000000005f52601160045260245ffd5b5f61170e82610ea6565b91507fffffffffffffffffffffffffffffffffffffffffffffffffffffffffffffffff82036117405761173f6116d7565b5b600182019050919050565b7f4f6e6c79206c656e6465722063616e2066756e6420746865206c6f616e0000005f82015250565b5f61177f601d83610f0e565b915061178a8261174b565b602082019050919050565b5f6020820190508181035f8301526117ac81611773565b9050919050565b7f436f6c6c61746572616c206e6f74206465706f736974656400000000000000005f82015250565b5f6117e7601883610f0e565b91506117f2826117b3565b602082019050919050565b5f6020820190508181035f830152611814816117db565b9050919050565b7f496e73756666696369656e742066756e647300000000000000000000000000005f82015250565b5f61184f601283610f0e565b915061185a8261181b565b602082019050919050565b5f6020820190508181035f83015261187c81611843565b9050919050565b7f4c6f616e206973206e6f7420617661696c61626c6500000000000000000000005f82015250565b5f6118b7601583610f0e565b91506118c282611883565b602082019050919050565b5f6020820190508181035f8301526118e4816118ab565b9050919050565b7f4f6e6c7920626f72726f7765722063616e206465706f73697420636f6c6c61745f8201527f6572616c00000000000000000000000000000000000000000000000000000000602082015250565b5f611945602483610f0e565b9150611950826118eb565b604082019050919050565b5f6020820190508181035f83015261197281611939565b9050919050565b7f496e73756666696369656e7420636f6c6c61746572616c0000000000000000005f82015250565b5f6119ad601783610f0e565b91506119b882611979565b602082019050919050565b5f6020820190508181035f8301526119da816119a1565b905091905056fea26469706673582212202a7d6685b76fcef57fc27e5c30765b213b6bb48da36b843e49f422576769310664736f6c634300081e0033",
  "immutableReferences": {},
  "source": "// SPDX-License-Identifier: MIT\r\npragma solidity ^0.8.17;\r\n\r\ncontract LoanManager {\r\n    uint public collateralAmount = 1000; // Example collateral\r\n    uint public interestRate = 5; // 5%\r\n\r\n    enum LoanStatus { Requested, Accepted, CollateralDeposited, Funded, Completed, Cancelled }\r\n\r\n    struct Loan {\r\n        uint id;\r\n        address borrower;\r\n        address lender;\r\n        uint amount;\r\n        uint termDays;\r\n        string purpose;\r\n        string repaymentFrequency;\r\n        LoanStatus status;\r\n    }\r\n\r\n    Loan[] public loans;\r\n    uint public loanCount;\r\n\r\n    event LoanRequested(uint loanId, address borrower);\r\n    event LoanAccepted(uint loanId, address lender);\r\n    event CollateralDeposited(uint loanId, address borrower);\r\n    event LoanFunded(uint loanId, address lender);\r\n    event LoanCompleted(uint loanId);\r\n\r\n    // Request a new loan\r\n    function requestLoan(\r\n        uint amount,\r\n        uint termDays,\r\n        string memory purpose,\r\n        string memory repaymentFrequency\r\n    ) public {\r\n        loans.push(Loan({\r\n            id: loanCount,\r\n            borrower: msg.sender,\r\n            lender: address(0),\r\n            amount: amount,\r\n            termDays: termDays,\r\n            purpose: purpose,\r\n            repaymentFrequency: repaymentFrequency,\r\n            status: LoanStatus.Requested\r\n        }));\r\n\r\n        emit LoanRequested(loanCount, msg.sender);\r\n        loanCount++;\r\n    }\r\n\r\n    // Accept a loan request\r\n    function acceptLoan(uint loanId) public {\r\n        require(loanId < loanCount, \"Invalid loan ID\");\r\n        Loan storage loan = loans[loanId];\r\n        require(loan.status == LoanStatus.Requested, \"Loan is not available\");\r\n        \r\n        loan.lender = msg.sender;\r\n        loan.status = LoanStatus.Accepted;\r\n\r\n        emit LoanAccepted(loanId, msg.sender);\r\n    }\r\n\r\n    // Deposit collateral by borrower\r\n    function depositCollateral(uint loanId) public payable {\r\n        require(loanId < loanCount, \"Invalid loan ID\");\r\n        Loan storage loan = loans[loanId];\r\n        require(msg.sender == loan.borrower, \"Only borrower can deposit collateral\");\r\n        require(msg.value >= collateralAmount, \"Insufficient collateral\");\r\n\r\n        loan.status = LoanStatus.CollateralDeposited;\r\n        emit CollateralDeposited(loanId, msg.sender);\r\n    }\r\n\r\n    // Fund the loan by lender\r\n    function fundLoan(uint loanId) public payable {\r\n        require(loanId < loanCount, \"Invalid loan ID\");\r\n        Loan storage loan = loans[loanId];\r\n        require(msg.sender == loan.lender, \"Only lender can fund the loan\");\r\n        require(loan.status == LoanStatus.CollateralDeposited, \"Collateral not deposited\");\r\n        require(msg.value >= loan.amount, \"Insufficient funds\");\r\n\r\n        payable(loan.borrower).transfer(loan.amount);\r\n        loan.status = LoanStatus.Funded;\r\n\r\n        emit LoanFunded(loanId, msg.sender);\r\n    }\r\n\r\n    // Get total loan count\r\n    function getLoanCount() public view returns (uint) {\r\n        return loanCount;\r\n    }\r\n\r\n    // Get numeric fields of loan\r\n    function getLoanBasic(uint loanId) public view returns (\r\n        uint, address, address, uint, uint, uint8\r\n    ) {\r\n        require(loanId < loanCount, \"Invalid loan ID\");\r\n        Loan storage l = loans[loanId];\r\n        return (\r\n            l.id,\r\n            l.borrower,\r\n            l.lender,\r\n            l.amount,\r\n            l.termDays,\r\n            uint8(l.status)\r\n        );\r\n    }\r\n\r\n    // Get text fields of loan\r\n    function getLoanText(uint loanId) public view returns (\r\n        string memory, string memory\r\n    ) {\r\n        require(loanId < loanCount, \"Invalid loan ID\");\r\n        Loan storage l = loans[loanId];\r\n        return (\r\n            l.purpose,\r\n            l.repaymentFrequency\r\n        );\r\n    }\r\n}",
  "sourcePath": "C:\\Folder\\Decentralized-Finance-Lending-System\\Blockchain\\blockchain-lending\\contracts\\LoanManager.sol",
  "compiler": {
    "name": "solc",
    "version": "0.8.30+commit.73712a01.Emscripten.clang"
  },
  "schemaVersion": "3.4.16",
  "updatedAt": "2025-05-08T17:42:21.755Z",
  "networkType": "ethereum",
  "devdoc": {
    "kind": "dev",
    "methods": {},
    "version": 1
  },
  "userdoc": {
    "kind": "user",
    "methods": {},
    "version": 1
  }
}