{
  "contractName": "LoanManager",
  "abi": [
    {
      "anonymous": false,
      "inputs": [
        {
          "indexed": false,
          "internalType": "uint256",
          "name": "loanId",
          "type": "uint256"
        },
        {
          "indexed": false,
          "internalType": "address",
          "name": "borrower",
          "type": "address"
        }
      ],
      "name": "CollateralDeposited",
      "type": "event"
    },
    {
      "anonymous": false,
      "inputs": [
        {
          "indexed": false,
          "internalType": "uint256",
          "name": "loanId",
          "type": "uint256"
        },
        {
          "indexed": false,
          "internalType": "address",
          "name": "lender",
          "type": "address"
        }
      ],
      "name": "LoanAccepted",
      "type": "event"
    },
    {
      "anonymous": false,
      "inputs": [
        {
          "indexed": false,
          "internalType": "uint256",
          "name": "loanId",
          "type": "uint256"
        }
      ],
      "name": "LoanCompleted",
      "type": "event"
    },
    {
      "anonymous": false,
      "inputs": [
        {
          "indexed": false,
          "internalType": "uint256",
          "name": "loanId",
          "type": "uint256"
        },
        {
          "indexed": false,
          "internalType": "address",
          "name": "lender",
          "type": "address"
        }
      ],
      "name": "LoanFunded",
      "type": "event"
    },
    {
      "anonymous": false,
      "inputs": [
        {
          "indexed": false,
          "internalType": "uint256",
          "name": "loanId",
          "type": "uint256"
        },
        {
          "indexed": false,
          "internalType": "address",
          "name": "borrower",
          "type": "address"
        }
      ],
      "name": "LoanRequested",
      "type": "event"
    },
    {
      "inputs": [],
      "name": "collateralAmount",
      "outputs": [
        {
          "internalType": "uint256",
          "name": "",
          "type": "uint256"
        }
      ],
      "stateMutability": "view",
      "type": "function",
      "constant": true
    },
    {
      "inputs": [
        {
          "internalType": "uint256",
          "name": "",
          "type": "uint256"
        }
      ],
      "name": "collateralDeposited",
      "outputs": [
        {
          "internalType": "bool",
          "name": "",
          "type": "bool"
        }
      ],
      "stateMutability": "view",
      "type": "function",
      "constant": true
    },
    {
      "inputs": [],
      "name": "interestRate",
      "outputs": [
        {
          "internalType": "uint256",
          "name": "",
          "type": "uint256"
        }
      ],
      "stateMutability": "view",
      "type": "function",
      "constant": true
    },
    {
      "inputs": [],
      "name": "loanCount",
      "outputs": [
        {
          "internalType": "uint256",
          "name": "",
          "type": "uint256"
        }
      ],
      "stateMutability": "view",
      "type": "function",
      "constant": true
    },
    {
      "inputs": [
        {
          "internalType": "uint256",
          "name": "",
          "type": "uint256"
        }
      ],
      "name": "loans",
      "outputs": [
        {
          "internalType": "uint256",
          "name": "id",
          "type": "uint256"
        },
        {
          "internalType": "address",
          "name": "borrower",
          "type": "address"
        },
        {
          "internalType": "address",
          "name": "lender",
          "type": "address"
        },
        {
          "internalType": "uint256",
          "name": "amount",
          "type": "uint256"
        },
        {
          "internalType": "uint256",
          "name": "termDays",
          "type": "uint256"
        },
        {
          "internalType": "string",
          "name": "purpose",
          "type": "string"
        },
        {
          "internalType": "string",
          "name": "repaymentFrequency",
          "type": "string"
        },
        {
          "internalType": "enum LoanManager.LoanStatus",
          "name": "status",
          "type": "uint8"
        }
      ],
      "stateMutability": "view",
      "type": "function",
      "constant": true
    },
    {
      "inputs": [
        {
          "internalType": "uint256",
          "name": "amount",
          "type": "uint256"
        },
        {
          "internalType": "uint256",
          "name": "termDays",
          "type": "uint256"
        },
        {
          "internalType": "string",
          "name": "purpose",
          "type": "string"
        },
        {
          "internalType": "string",
          "name": "repaymentFrequency",
          "type": "string"
        }
      ],
      "name": "requestLoan",
      "outputs": [],
      "stateMutability": "nonpayable",
      "type": "function"
    },
    {
      "inputs": [
        {
          "internalType": "uint256",
          "name": "loanId",
          "type": "uint256"
        }
      ],
      "name": "acceptLoan",
      "outputs": [],
      "stateMutability": "nonpayable",
      "type": "function"
    },
    {
      "inputs": [
        {
          "internalType": "uint256",
          "name": "loanId",
          "type": "uint256"
        }
      ],
      "name": "depositCollateral",
      "outputs": [],
      "stateMutability": "payable",
      "type": "function",
      "payable": true
    },
    {
      "inputs": [
        {
          "internalType": "uint256",
          "name": "loanId",
          "type": "uint256"
        }
      ],
      "name": "fundLoan",
      "outputs": [],
      "stateMutability": "payable",
      "type": "function",
      "payable": true
    },
    {
      "inputs": [],
      "name": "getLoanCount",
      "outputs": [
        {
          "internalType": "uint256",
          "name": "",
          "type": "uint256"
        }
      ],
      "stateMutability": "view",
      "type": "function",
      "constant": true
    },
    {
      "inputs": [
        {
          "internalType": "uint256",
          "name": "loanId",
          "type": "uint256"
        }
      ],
      "name": "getLoan",
      "outputs": [
        {
          "internalType": "uint256",
          "name": "",
          "type": "uint256"
        },
        {
          "internalType": "address",
          "name": "",
          "type": "address"
        },
        {
          "internalType": "address",
          "name": "",
          "type": "address"
        },
        {
          "internalType": "uint256",
          "name": "",
          "type": "uint256"
        },
        {
          "internalType": "uint256",
          "name": "",
          "type": "uint256"
        },
        {
          "internalType": "string",
          "name": "",
          "type": "string"
        },
        {
          "internalType": "string",
          "name": "",
          "type": "string"
        },
        {
          "internalType": "uint8",
          "name": "",
          "type": "uint8"
        }
      ],
      "stateMutability": "view",
      "type": "function",
      "constant": true
    }
  ],
  "bytecode": "0x60806040526103e85f5560056001553480156018575f5ffd5b50611abd806100265f395ff3fe60806040526004361061009b575f3560e01c806392d09ceb1161006357806392d09ceb1461017a578063adfbe22f146101a4578063bad4a01f146101cc578063ce63094d146101e8578063e1ec3c6814610212578063f5db0979146102555761009b565b806349cdbcd01461009f578063504006ca146100c7578063521968121461010a5780637c3a00fd14610134578063846b909a1461015e575b5f5ffd5b3480156100aa575f5ffd5b506100c560048036038101906100c091906110b8565b610291565b005b3480156100d2575f5ffd5b506100ed60048036038101906100e89190611154565b610490565b604051610101989796959493929190611248565b60405180910390f35b348015610115575f5ffd5b5061011e610785565b60405161012b91906112d2565b60405180910390f35b34801561013f575f5ffd5b5061014861078e565b60405161015591906112d2565b60405180910390f35b61017860048036038101906101739190611154565b610794565b005b348015610185575f5ffd5b5061018e610a70565b60405161019b91906112d2565b60405180910390f35b3480156101af575f5ffd5b506101ca60048036038101906101c59190611154565b610a75565b005b6101e660048036038101906101e19190611154565b610bf2565b005b3480156101f3575f5ffd5b506101fc610d6c565b60405161020991906112d2565b60405180910390f35b34801561021d575f5ffd5b5061023860048036038101906102339190611154565b610d72565b60405161024c98979695949392919061135e565b60405180910390f35b348015610260575f5ffd5b5061027b60048036038101906102769190611154565b610f1b565b6040516102889190611402565b60405180910390f35b600260405180610100016040528060035481526020013373ffffffffffffffffffffffffffffffffffffffff1681526020015f73ffffffffffffffffffffffffffffffffffffffff1681526020018681526020018581526020018481526020018381526020015f600581111561030a576103096112eb565b5b815250908060018154018082558091505060019003905f5260205f2090600802015f909190919091505f820151815f01556020820151816001015f6101000a81548173ffffffffffffffffffffffffffffffffffffffff021916908373ffffffffffffffffffffffffffffffffffffffff1602179055506040820151816002015f6101000a81548173ffffffffffffffffffffffffffffffffffffffff021916908373ffffffffffffffffffffffffffffffffffffffff160217905550606082015181600301556080820151816004015560a08201518160050190816103f09190611618565b5060c08201518160060190816104069190611618565b5060e0820151816007015f6101000a81548160ff02191690836005811115610431576104306112eb565b5b021790555050507fb7401c74d1dadd9b1c5778044555b38bcde050d7371b0e27212cfe1c418febcd6003543360405161046b9291906116e7565b60405180910390a160035f8154809291906104859061173b565b919050555050505050565b5f5f5f5f5f6060805f60028054905089106104e0576040517f08c379a00000000000000000000000000000000000000000000000000000000081526004016104d7906117cc565b60405180910390fd5b5f60028a815481106104f5576104f46117ea565b5b905f5260205f209060080201604051806101000160405290815f8201548152602001600182015f9054906101000a900473ffffffffffffffffffffffffffffffffffffffff1673ffffffffffffffffffffffffffffffffffffffff1673ffffffffffffffffffffffffffffffffffffffff168152602001600282015f9054906101000a900473ffffffffffffffffffffffffffffffffffffffff1673ffffffffffffffffffffffffffffffffffffffff1673ffffffffffffffffffffffffffffffffffffffff16815260200160038201548152602001600482015481526020016005820180546105e490611448565b80601f016020809104026020016040519081016040528092919081815260200182805461061090611448565b801561065b5780601f106106325761010080835404028352916020019161065b565b820191905f5260205f20905b81548152906001019060200180831161063e57829003601f168201915b5050505050815260200160068201805461067490611448565b80601f01602080910402602001604051908101604052809291908181526020018280546106a090611448565b80156106eb5780601f106106c2576101008083540402835291602001916106eb565b820191905f5260205f20905b8154815290600101906020018083116106ce57829003601f168201915b50505050508152602001600782015f9054906101000a900460ff166005811115610718576107176112eb565b5b600581111561072a576107296112eb565b5b815250509050805f015181602001518260400151836060015184608001518560a001518660c001518760e001516005811115610769576107686112eb565b5b9850985098509850985098509850985050919395975091939597565b5f600354905090565b60015481565b600281815481106107a8576107a76117ea565b5b905f5260205f2090600802016002015f9054906101000a900473ffffffffffffffffffffffffffffffffffffffff1673ffffffffffffffffffffffffffffffffffffffff163373ffffffffffffffffffffffffffffffffffffffff1614610844576040517f08c379a000000000000000000000000000000000000000000000000000000000815260040161083b90611861565b60405180910390fd5b60026005811115610858576108576112eb565b5b6002828154811061086c5761086b6117ea565b5b905f5260205f2090600802016007015f9054906101000a900460ff16600581111561089a576108996112eb565b5b146108da576040517f08c379a00000000000000000000000000000000000000000000000000000000081526004016108d1906118c9565b60405180910390fd5b600281815481106108ee576108ed6117ea565b5b905f5260205f20906008020160030154341015610940576040517f08c379a000000000000000000000000000000000000000000000000000000000815260040161093790611931565b60405180910390fd5b60028181548110610954576109536117ea565b5b905f5260205f2090600802016001015f9054906101000a900473ffffffffffffffffffffffffffffffffffffffff1673ffffffffffffffffffffffffffffffffffffffff166108fc600283815481106109b0576109af6117ea565b5b905f5260205f2090600802016003015490811502906040515f60405180830381858888f193505050501580156109e8573d5f5f3e3d5ffd5b506003600282815481106109ff576109fe6117ea565b5b905f5260205f2090600802016007015f6101000a81548160ff02191690836005811115610a2f57610a2e6112eb565b5b02179055507f15feab5d3eb17171632762cf769709a315dd15f487a556c0dfb8a259c8f186cc8133604051610a659291906116e7565b60405180910390a150565b5f5481565b5f6005811115610a8857610a876112eb565b5b60028281548110610a9c57610a9b6117ea565b5b905f5260205f2090600802016007015f9054906101000a900460ff166005811115610aca57610ac96112eb565b5b14610b0a576040517f08c379a0000000000000000000000000000000000000000000000000000000008152600401610b0190611999565b60405180910390fd5b3360028281548110610b1f57610b1e6117ea565b5b905f5260205f2090600802016002015f6101000a81548173ffffffffffffffffffffffffffffffffffffffff021916908373ffffffffffffffffffffffffffffffffffffffff160217905550600160028281548110610b8157610b806117ea565b5b905f5260205f2090600802016007015f6101000a81548160ff02191690836005811115610bb157610bb06112eb565b5b02179055507f3ad02261725390771e704d06848ed8e414d628daf1b8dbffe111f437c848d6208133604051610be79291906116e7565b60405180910390a150565b60028181548110610c0657610c056117ea565b5b905f5260205f2090600802016001015f9054906101000a900473ffffffffffffffffffffffffffffffffffffffff1673ffffffffffffffffffffffffffffffffffffffff163373ffffffffffffffffffffffffffffffffffffffff1614610ca2576040517f08c379a0000000000000000000000000000000000000000000000000000000008152600401610c9990611a01565b60405180910390fd5b5f54341015610ce6576040517f08c379a0000000000000000000000000000000000000000000000000000000008152600401610cdd90611a69565b60405180910390fd5b6002808281548110610cfb57610cfa6117ea565b5b905f5260205f2090600802016007015f6101000a81548160ff02191690836005811115610d2b57610d2a6112eb565b5b02179055507f05cbeb5c42e202da72c29b2ad639ea547377301fa4ac68c3ecf29421683d83638133604051610d619291906116e7565b60405180910390a150565b60035481565b60028181548110610d81575f80fd5b905f5260205f2090600802015f91509050805f015490806001015f9054906101000a900473ffffffffffffffffffffffffffffffffffffffff1690806002015f9054906101000a900473ffffffffffffffffffffffffffffffffffffffff1690806003015490806004015490806005018054610dfc90611448565b80601f0160208091040260200160405190810160405280929190818152602001828054610e2890611448565b8015610e735780601f10610e4a57610100808354040283529160200191610e73565b820191905f5260205f20905b815481529060010190602001808311610e5657829003601f168201915b505050505090806006018054610e8890611448565b80601f0160208091040260200160405190810160405280929190818152602001828054610eb490611448565b8015610eff5780601f10610ed657610100808354040283529160200191610eff565b820191905f5260205f20905b815481529060010190602001808311610ee257829003601f168201915b505050505090806007015f9054906101000a900460ff16905088565b6004602052805f5260405f205f915054906101000a900460ff1681565b5f604051905090565b5f5ffd5b5f5ffd5b5f819050919050565b610f5b81610f49565b8114610f65575f5ffd5b50565b5f81359050610f7681610f52565b92915050565b5f5ffd5b5f5ffd5b5f601f19601f8301169050919050565b7f4e487b71000000000000000000000000000000000000000000000000000000005f52604160045260245ffd5b610fca82610f84565b810181811067ffffffffffffffff82111715610fe957610fe8610f94565b5b80604052505050565b5f610ffb610f38565b90506110078282610fc1565b919050565b5f67ffffffffffffffff82111561102657611025610f94565b5b61102f82610f84565b9050602081019050919050565b828183375f83830152505050565b5f61105c6110578461100c565b610ff2565b90508281526020810184848401111561107857611077610f80565b5b61108384828561103c565b509392505050565b5f82601f83011261109f5761109e610f7c565b5b81356110af84826020860161104a565b91505092915050565b5f5f5f5f608085870312156110d0576110cf610f41565b5b5f6110dd87828801610f68565b94505060206110ee87828801610f68565b935050604085013567ffffffffffffffff81111561110f5761110e610f45565b5b61111b8782880161108b565b925050606085013567ffffffffffffffff81111561113c5761113b610f45565b5b6111488782880161108b565b91505092959194509250565b5f6020828403121561116957611168610f41565b5b5f61117684828501610f68565b91505092915050565b61118881610f49565b82525050565b5f73ffffffffffffffffffffffffffffffffffffffff82169050919050565b5f6111b78261118e565b9050919050565b6111c7816111ad565b82525050565b5f81519050919050565b5f82825260208201905092915050565b8281835e5f83830152505050565b5f6111ff826111cd565b61120981856111d7565b93506112198185602086016111e7565b61122281610f84565b840191505092915050565b5f60ff82169050919050565b6112428161122d565b82525050565b5f6101008201905061125c5f83018b61117f565b611269602083018a6111be565b61127660408301896111be565b611283606083018861117f565b611290608083018761117f565b81810360a08301526112a281866111f5565b905081810360c08301526112b681856111f5565b90506112c560e0830184611239565b9998505050505050505050565b5f6020820190506112e55f83018461117f565b92915050565b7f4e487b71000000000000000000000000000000000000000000000000000000005f52602160045260245ffd5b60068110611329576113286112eb565b5b50565b5f81905061133982611318565b919050565b5f6113488261132c565b9050919050565b6113588161133e565b82525050565b5f610100820190506113725f83018b61117f565b61137f602083018a6111be565b61138c60408301896111be565b611399606083018861117f565b6113a6608083018761117f565b81810360a08301526113b881866111f5565b905081810360c08301526113cc81856111f5565b90506113db60e083018461134f565b9998505050505050505050565b5f8115159050919050565b6113fc816113e8565b82525050565b5f6020820190506114155f8301846113f3565b92915050565b7f4e487b71000000000000000000000000000000000000000000000000000000005f52602260045260245ffd5b5f600282049050600182168061145f57607f821691505b6020821081036114725761147161141b565b5b50919050565b5f819050815f5260205f209050919050565b5f6020601f8301049050919050565b5f82821b905092915050565b5f600883026114d47fffffffffffffffffffffffffffffffffffffffffffffffffffffffffffffffff82611499565b6114de8683611499565b95508019841693508086168417925050509392505050565b5f819050919050565b5f61151961151461150f84610f49565b6114f6565b610f49565b9050919050565b5f819050919050565b611532836114ff565b61154661153e82611520565b8484546114a5565b825550505050565b5f5f905090565b61155d61154e565b611568818484611529565b505050565b5b8181101561158b576115805f82611555565b60018101905061156e565b5050565b601f8211156115d0576115a181611478565b6115aa8461148a565b810160208510156115b9578190505b6115cd6115c58561148a565b83018261156d565b50505b505050565b5f82821c905092915050565b5f6115f05f19846008026115d5565b1980831691505092915050565b5f61160883836115e1565b9150826002028217905092915050565b611621826111cd565b67ffffffffffffffff81111561163a57611639610f94565b5b6116448254611448565b61164f82828561158f565b5f60209050601f831160018114611680575f841561166e578287015190505b61167885826115fd565b8655506116df565b601f19841661168e86611478565b5f5b828110156116b557848901518255600182019150602085019450602081019050611690565b868310156116d257848901516116ce601f8916826115e1565b8355505b6001600288020188555050505b505050505050565b5f6040820190506116fa5f83018561117f565b61170760208301846111be565b9392505050565b7f4e487b71000000000000000000000000000000000000000000000000000000005f52601160045260245ffd5b5f61174582610f49565b91507fffffffffffffffffffffffffffffffffffffffffffffffffffffffffffffffff82036117775761177661170e565b5b600182019050919050565b7f4c6f616e20494420646f6573206e6f74206578697374000000000000000000005f82015250565b5f6117b66016836111d7565b91506117c182611782565b602082019050919050565b5f6020820190508181035f8301526117e3816117aa565b9050919050565b7f4e487b71000000000000000000000000000000000000000000000000000000005f52603260045260245ffd5b7f4f6e6c79206c656e6465720000000000000000000000000000000000000000005f82015250565b5f61184b600b836111d7565b915061185682611817565b602082019050919050565b5f6020820190508181035f8301526118788161183f565b9050919050565b7f436f6c6c61746572616c206e6f7420796574206465706f7369746564000000005f82015250565b5f6118b3601c836111d7565b91506118be8261187f565b602082019050919050565b5f6020820190508181035f8301526118e0816118a7565b9050919050565b7f496e73756666696369656e742066756e647300000000000000000000000000005f82015250565b5f61191b6012836111d7565b9150611926826118e7565b602082019050919050565b5f6020820190508181035f8301526119488161190f565b9050919050565b7f4c6f616e206e6f7420617661696c61626c6500000000000000000000000000005f82015250565b5f6119836012836111d7565b915061198e8261194f565b602082019050919050565b5f6020820190508181035f8301526119b081611977565b9050919050565b7f4f6e6c7920626f72726f776572000000000000000000000000000000000000005f82015250565b5f6119eb600d836111d7565b91506119f6826119b7565b602082019050919050565b5f6020820190508181035f830152611a18816119df565b9050919050565b7f496e73756666696369656e7420636f6c6c61746572616c0000000000000000005f82015250565b5f611a536017836111d7565b9150611a5e82611a1f565b602082019050919050565b5f6020820190508181035f830152611a8081611a47565b905091905056fea2646970667358221220387bc27548418e608599a12362706abfac1b3638f8442bae33d7b3f3b36cfead64736f6c634300081d0033",
  "immutableReferences": {},
  "source": "// SPDX-License-Identifier: MIT\r\npragma solidity ^0.8.17;\r\n\r\ncontract LoanManager {\r\n    uint public collateralAmount = 1000; // PHP equivalent\r\n    uint public interestRate = 5; // 5%\r\n\r\n    enum LoanStatus { Requested, Accepted, CollateralDeposited, Funded, Completed, Cancelled }\r\n\r\n    struct Loan {\r\n        uint id;\r\n        address borrower;\r\n        address lender;\r\n        uint amount;\r\n        uint termDays;\r\n        string purpose;\r\n        string repaymentFrequency;\r\n        LoanStatus status;\r\n    }\r\n\r\n    Loan[] public loans;\r\n    uint public loanCount;\r\n    mapping(uint => bool) public collateralDeposited;\r\n\r\n    event LoanRequested(uint loanId, address borrower);\r\n    event LoanAccepted(uint loanId, address lender);\r\n    event CollateralDeposited(uint loanId, address borrower);\r\n    event LoanFunded(uint loanId, address lender);\r\n    event LoanCompleted(uint loanId);\r\n\r\n    function requestLoan(uint amount, uint termDays, string memory purpose, string memory repaymentFrequency) public {\r\n        loans.push(Loan({\r\n            id: loanCount,\r\n            borrower: msg.sender,\r\n            lender: address(0),\r\n            amount: amount,\r\n            termDays: termDays,\r\n            purpose: purpose,\r\n            repaymentFrequency: repaymentFrequency,\r\n            status: LoanStatus.Requested\r\n        }));\r\n        emit LoanRequested(loanCount, msg.sender);\r\n        loanCount++;\r\n    }\r\n\r\n    function acceptLoan(uint loanId) public {\r\n        require(loans[loanId].status == LoanStatus.Requested, \"Loan not available\");\r\n        loans[loanId].lender = msg.sender;\r\n        loans[loanId].status = LoanStatus.Accepted;\r\n        emit LoanAccepted(loanId, msg.sender);\r\n    }\r\n\r\n    function depositCollateral(uint loanId) public payable {\r\n        require(msg.sender == loans[loanId].borrower, \"Only borrower\");\r\n        require(msg.value >= collateralAmount, \"Insufficient collateral\");\r\n        loans[loanId].status = LoanStatus.CollateralDeposited;\r\n        emit CollateralDeposited(loanId, msg.sender);\r\n    }\r\n\r\n    function fundLoan(uint loanId) public payable {\r\n        require(msg.sender == loans[loanId].lender, \"Only lender\");\r\n        require(loans[loanId].status == LoanStatus.CollateralDeposited, \"Collateral not yet deposited\");\r\n        require(msg.value >= loans[loanId].amount, \"Insufficient funds\");\r\n        payable(loans[loanId].borrower).transfer(loans[loanId].amount);\r\n        loans[loanId].status = LoanStatus.Funded;\r\n        emit LoanFunded(loanId, msg.sender);\r\n    }\r\n\r\n    function getLoanCount() public view returns (uint) {\r\n        return loanCount;\r\n    }\r\n\r\n    function getLoan(uint loanId) public view returns (\r\n        uint, address, address, uint, uint, string memory, string memory, uint8\r\n    ) {\r\n        require(loanId < loans.length, \"Loan ID does not exist\");  // <- This is correct and safe\r\n        Loan memory l = loans[loanId];\r\n        return (\r\n            l.id,\r\n            l.borrower,\r\n            l.lender,\r\n            l.amount,\r\n            l.termDays,\r\n            l.purpose,\r\n            l.repaymentFrequency,\r\n            uint8(l.status)\r\n        );\r\n    }\r\n}\r\n",
  "sourcePath": "C:\\Folder\\Decentralized-Finance-Lending-System\\Blockchain\\blockchain-lending\\contracts\\LoanManager.sol",
  "compiler": {
    "name": "solc",
    "version": "0.8.29+commit.ab55807c.Emscripten.clang"
  },
  "schemaVersion": "3.4.16",
  "updatedAt": "2025-05-06T05:14:46.633Z",
  "networkType": "ethereum",
  "devdoc": {
    "kind": "dev",
    "methods": {},
    "version": 1
  },
  "userdoc": {
    "kind": "user",
    "methods": {},
    "version": 1
  }
}