{
  "contractName": "LoanManager",
  "abi": [
    {
      "anonymous": false,
      "inputs": [
        {
          "indexed": false,
          "internalType": "uint256",
          "name": "loanId",
          "type": "uint256"
        },
        {
          "indexed": false,
          "internalType": "address",
          "name": "borrower",
          "type": "address"
        }
      ],
      "name": "CollateralDeposited",
      "type": "event"
    },
    {
      "anonymous": false,
      "inputs": [
        {
          "indexed": false,
          "internalType": "uint256",
          "name": "loanId",
          "type": "uint256"
        },
        {
          "indexed": false,
          "internalType": "address",
          "name": "lender",
          "type": "address"
        }
      ],
      "name": "LoanAccepted",
      "type": "event"
    },
    {
      "anonymous": false,
      "inputs": [
        {
          "indexed": false,
          "internalType": "uint256",
          "name": "loanId",
          "type": "uint256"
        }
      ],
      "name": "LoanCompleted",
      "type": "event"
    },
    {
      "anonymous": false,
      "inputs": [
        {
          "indexed": false,
          "internalType": "uint256",
          "name": "loanId",
          "type": "uint256"
        },
        {
          "indexed": false,
          "internalType": "address",
          "name": "lender",
          "type": "address"
        }
      ],
      "name": "LoanFunded",
      "type": "event"
    },
    {
      "anonymous": false,
      "inputs": [
        {
          "indexed": false,
          "internalType": "uint256",
          "name": "loanId",
          "type": "uint256"
        },
        {
          "indexed": false,
          "internalType": "address",
          "name": "borrower",
          "type": "address"
        }
      ],
      "name": "LoanRequested",
      "type": "event"
    },
    {
      "inputs": [],
      "name": "collateralAmount",
      "outputs": [
        {
          "internalType": "uint256",
          "name": "",
          "type": "uint256"
        }
      ],
      "stateMutability": "view",
      "type": "function"
    },
    {
      "inputs": [
        {
          "internalType": "uint256",
          "name": "",
          "type": "uint256"
        }
      ],
      "name": "collateralDeposited",
      "outputs": [
        {
          "internalType": "bool",
          "name": "",
          "type": "bool"
        }
      ],
      "stateMutability": "view",
      "type": "function"
    },
    {
      "inputs": [],
      "name": "interestRate",
      "outputs": [
        {
          "internalType": "uint256",
          "name": "",
          "type": "uint256"
        }
      ],
      "stateMutability": "view",
      "type": "function"
    },
    {
      "inputs": [],
      "name": "loanCount",
      "outputs": [
        {
          "internalType": "uint256",
          "name": "",
          "type": "uint256"
        }
      ],
      "stateMutability": "view",
      "type": "function"
    },
    {
      "inputs": [
        {
          "internalType": "uint256",
          "name": "",
          "type": "uint256"
        }
      ],
      "name": "loans",
      "outputs": [
        {
          "internalType": "uint256",
          "name": "id",
          "type": "uint256"
        },
        {
          "internalType": "address",
          "name": "borrower",
          "type": "address"
        },
        {
          "internalType": "address",
          "name": "lender",
          "type": "address"
        },
        {
          "internalType": "uint256",
          "name": "amount",
          "type": "uint256"
        },
        {
          "internalType": "uint256",
          "name": "termDays",
          "type": "uint256"
        },
        {
          "internalType": "string",
          "name": "purpose",
          "type": "string"
        },
        {
          "internalType": "string",
          "name": "repaymentFrequency",
          "type": "string"
        },
        {
          "internalType": "enum LoanManager.LoanStatus",
          "name": "status",
          "type": "uint8"
        }
      ],
      "stateMutability": "view",
      "type": "function"
    },
    {
      "inputs": [
        {
          "internalType": "uint256",
          "name": "amount",
          "type": "uint256"
        },
        {
          "internalType": "uint256",
          "name": "termDays",
          "type": "uint256"
        },
        {
          "internalType": "string",
          "name": "purpose",
          "type": "string"
        },
        {
          "internalType": "string",
          "name": "repaymentFrequency",
          "type": "string"
        }
      ],
      "name": "requestLoan",
      "outputs": [],
      "stateMutability": "nonpayable",
      "type": "function"
    },
    {
      "inputs": [
        {
          "internalType": "uint256",
          "name": "loanId",
          "type": "uint256"
        }
      ],
      "name": "acceptLoan",
      "outputs": [],
      "stateMutability": "nonpayable",
      "type": "function"
    },
    {
      "inputs": [
        {
          "internalType": "uint256",
          "name": "loanId",
          "type": "uint256"
        }
      ],
      "name": "depositCollateral",
      "outputs": [],
      "stateMutability": "payable",
      "type": "function"
    },
    {
      "inputs": [
        {
          "internalType": "uint256",
          "name": "loanId",
          "type": "uint256"
        }
      ],
      "name": "fundLoan",
      "outputs": [],
      "stateMutability": "payable",
      "type": "function"
    },
    {
      "inputs": [],
      "name": "getLoanCount",
      "outputs": [
        {
          "internalType": "uint256",
          "name": "",
          "type": "uint256"
        }
      ],
      "stateMutability": "view",
      "type": "function"
    },
    {
      "inputs": [
        {
          "internalType": "uint256",
          "name": "loanId",
          "type": "uint256"
        }
      ],
      "name": "getLoan",
      "outputs": [
        {
          "internalType": "uint256",
          "name": "",
          "type": "uint256"
        },
        {
          "internalType": "address",
          "name": "",
          "type": "address"
        },
        {
          "internalType": "address",
          "name": "",
          "type": "address"
        },
        {
          "internalType": "uint256",
          "name": "",
          "type": "uint256"
        },
        {
          "internalType": "uint256",
          "name": "",
          "type": "uint256"
        },
        {
          "internalType": "string",
          "name": "",
          "type": "string"
        },
        {
          "internalType": "string",
          "name": "",
          "type": "string"
        },
        {
          "internalType": "enum LoanManager.LoanStatus",
          "name": "",
          "type": "uint8"
        }
      ],
      "stateMutability": "view",
      "type": "function"
    }
  ],
  "bytecode": "0x60806040526103e85f5560056001553480156018575f5ffd5b50611957806100265f395ff3fe60806040526004361061009b575f3560e01c806392d09ceb1161006357806392d09ceb1461017a578063adfbe22f146101a4578063bad4a01f146101cc578063ce63094d146101e8578063e1ec3c6814610212578063f5db0979146102555761009b565b806349cdbcd01461009f578063504006ca146100c7578063521968121461010a5780637c3a00fd14610134578063846b909a1461015e575b5f5ffd5b3480156100aa575f5ffd5b506100c560048036038101906100c0919061105f565b610291565b005b3480156100d2575f5ffd5b506100ed60048036038101906100e891906110fb565b610490565b604051610101989796959493929190611247565b60405180910390f35b348015610115575f5ffd5b5061011e61072c565b60405161012b91906112d1565b60405180910390f35b34801561013f575f5ffd5b50610148610735565b60405161015591906112d1565b60405180910390f35b610178600480360381019061017391906110fb565b61073b565b005b348015610185575f5ffd5b5061018e610a17565b60405161019b91906112d1565b60405180910390f35b3480156101af575f5ffd5b506101ca60048036038101906101c591906110fb565b610a1c565b005b6101e660048036038101906101e191906110fb565b610b99565b005b3480156101f3575f5ffd5b506101fc610d13565b60405161020991906112d1565b60405180910390f35b34801561021d575f5ffd5b50610238600480360381019061023391906110fb565b610d19565b60405161024c989796959493929190611247565b60405180910390f35b348015610260575f5ffd5b5061027b600480360381019061027691906110fb565b610ec2565b6040516102889190611304565b60405180910390f35b600260405180610100016040528060035481526020013373ffffffffffffffffffffffffffffffffffffffff1681526020015f73ffffffffffffffffffffffffffffffffffffffff1681526020018681526020018581526020018481526020018381526020015f600581111561030a576103096111d4565b5b815250908060018154018082558091505060019003905f5260205f2090600802015f909190919091505f820151815f01556020820151816001015f6101000a81548173ffffffffffffffffffffffffffffffffffffffff021916908373ffffffffffffffffffffffffffffffffffffffff1602179055506040820151816002015f6101000a81548173ffffffffffffffffffffffffffffffffffffffff021916908373ffffffffffffffffffffffffffffffffffffffff160217905550606082015181600301556080820151816004015560a08201518160050190816103f0919061151a565b5060c0820151816006019081610406919061151a565b5060e0820151816007015f6101000a81548160ff02191690836005811115610431576104306111d4565b5b021790555050507fb7401c74d1dadd9b1c5778044555b38bcde050d7371b0e27212cfe1c418febcd6003543360405161046b9291906115e9565b60405180910390a160035f8154809291906104859061163d565b919050555050505050565b5f5f5f5f5f6060805f5f60028a815481106104ae576104ad611684565b5b905f5260205f209060080201604051806101000160405290815f8201548152602001600182015f9054906101000a900473ffffffffffffffffffffffffffffffffffffffff1673ffffffffffffffffffffffffffffffffffffffff1673ffffffffffffffffffffffffffffffffffffffff168152602001600282015f9054906101000a900473ffffffffffffffffffffffffffffffffffffffff1673ffffffffffffffffffffffffffffffffffffffff1673ffffffffffffffffffffffffffffffffffffffff168152602001600382015481526020016004820154815260200160058201805461059d9061134a565b80601f01602080910402602001604051908101604052809291908181526020018280546105c99061134a565b80156106145780601f106105eb57610100808354040283529160200191610614565b820191905f5260205f20905b8154815290600101906020018083116105f757829003601f168201915b5050505050815260200160068201805461062d9061134a565b80601f01602080910402602001604051908101604052809291908181526020018280546106599061134a565b80156106a45780601f1061067b576101008083540402835291602001916106a4565b820191905f5260205f20905b81548152906001019060200180831161068757829003601f168201915b50505050508152602001600782015f9054906101000a900460ff1660058111156106d1576106d06111d4565b5b60058111156106e3576106e26111d4565b5b815250509050805f015181602001518260400151836060015184608001518560a001518660c001518760e001519850985098509850985098509850985050919395975091939597565b5f600354905090565b60015481565b6002818154811061074f5761074e611684565b5b905f5260205f2090600802016002015f9054906101000a900473ffffffffffffffffffffffffffffffffffffffff1673ffffffffffffffffffffffffffffffffffffffff163373ffffffffffffffffffffffffffffffffffffffff16146107eb576040517f08c379a00000000000000000000000000000000000000000000000000000000081526004016107e2906116fb565b60405180910390fd5b600260058111156107ff576107fe6111d4565b5b6002828154811061081357610812611684565b5b905f5260205f2090600802016007015f9054906101000a900460ff166005811115610841576108406111d4565b5b14610881576040517f08c379a000000000000000000000000000000000000000000000000000000000815260040161087890611763565b60405180910390fd5b6002818154811061089557610894611684565b5b905f5260205f209060080201600301543410156108e7576040517f08c379a00000000000000000000000000000000000000000000000000000000081526004016108de906117cb565b60405180910390fd5b600281815481106108fb576108fa611684565b5b905f5260205f2090600802016001015f9054906101000a900473ffffffffffffffffffffffffffffffffffffffff1673ffffffffffffffffffffffffffffffffffffffff166108fc6002838154811061095757610956611684565b5b905f5260205f2090600802016003015490811502906040515f60405180830381858888f1935050505015801561098f573d5f5f3e3d5ffd5b506003600282815481106109a6576109a5611684565b5b905f5260205f2090600802016007015f6101000a81548160ff021916908360058111156109d6576109d56111d4565b5b02179055507f15feab5d3eb17171632762cf769709a315dd15f487a556c0dfb8a259c8f186cc8133604051610a0c9291906115e9565b60405180910390a150565b5f5481565b5f6005811115610a2f57610a2e6111d4565b5b60028281548110610a4357610a42611684565b5b905f5260205f2090600802016007015f9054906101000a900460ff166005811115610a7157610a706111d4565b5b14610ab1576040517f08c379a0000000000000000000000000000000000000000000000000000000008152600401610aa890611833565b60405180910390fd5b3360028281548110610ac657610ac5611684565b5b905f5260205f2090600802016002015f6101000a81548173ffffffffffffffffffffffffffffffffffffffff021916908373ffffffffffffffffffffffffffffffffffffffff160217905550600160028281548110610b2857610b27611684565b5b905f5260205f2090600802016007015f6101000a81548160ff02191690836005811115610b5857610b576111d4565b5b02179055507f3ad02261725390771e704d06848ed8e414d628daf1b8dbffe111f437c848d6208133604051610b8e9291906115e9565b60405180910390a150565b60028181548110610bad57610bac611684565b5b905f5260205f2090600802016001015f9054906101000a900473ffffffffffffffffffffffffffffffffffffffff1673ffffffffffffffffffffffffffffffffffffffff163373ffffffffffffffffffffffffffffffffffffffff1614610c49576040517f08c379a0000000000000000000000000000000000000000000000000000000008152600401610c409061189b565b60405180910390fd5b5f54341015610c8d576040517f08c379a0000000000000000000000000000000000000000000000000000000008152600401610c8490611903565b60405180910390fd5b6002808281548110610ca257610ca1611684565b5b905f5260205f2090600802016007015f6101000a81548160ff02191690836005811115610cd257610cd16111d4565b5b02179055507f05cbeb5c42e202da72c29b2ad639ea547377301fa4ac68c3ecf29421683d83638133604051610d089291906115e9565b60405180910390a150565b60035481565b60028181548110610d28575f80fd5b905f5260205f2090600802015f91509050805f015490806001015f9054906101000a900473ffffffffffffffffffffffffffffffffffffffff1690806002015f9054906101000a900473ffffffffffffffffffffffffffffffffffffffff1690806003015490806004015490806005018054610da39061134a565b80601f0160208091040260200160405190810160405280929190818152602001828054610dcf9061134a565b8015610e1a5780601f10610df157610100808354040283529160200191610e1a565b820191905f5260205f20905b815481529060010190602001808311610dfd57829003601f168201915b505050505090806006018054610e2f9061134a565b80601f0160208091040260200160405190810160405280929190818152602001828054610e5b9061134a565b8015610ea65780601f10610e7d57610100808354040283529160200191610ea6565b820191905f5260205f20905b815481529060010190602001808311610e8957829003601f168201915b505050505090806007015f9054906101000a900460ff16905088565b6004602052805f5260405f205f915054906101000a900460ff1681565b5f604051905090565b5f5ffd5b5f5ffd5b5f819050919050565b610f0281610ef0565b8114610f0c575f5ffd5b50565b5f81359050610f1d81610ef9565b92915050565b5f5ffd5b5f5ffd5b5f601f19601f8301169050919050565b7f4e487b71000000000000000000000000000000000000000000000000000000005f52604160045260245ffd5b610f7182610f2b565b810181811067ffffffffffffffff82111715610f9057610f8f610f3b565b5b80604052505050565b5f610fa2610edf565b9050610fae8282610f68565b919050565b5f67ffffffffffffffff821115610fcd57610fcc610f3b565b5b610fd682610f2b565b9050602081019050919050565b828183375f83830152505050565b5f611003610ffe84610fb3565b610f99565b90508281526020810184848401111561101f5761101e610f27565b5b61102a848285610fe3565b509392505050565b5f82601f83011261104657611045610f23565b5b8135611056848260208601610ff1565b91505092915050565b5f5f5f5f6080858703121561107757611076610ee8565b5b5f61108487828801610f0f565b945050602061109587828801610f0f565b935050604085013567ffffffffffffffff8111156110b6576110b5610eec565b5b6110c287828801611032565b925050606085013567ffffffffffffffff8111156110e3576110e2610eec565b5b6110ef87828801611032565b91505092959194509250565b5f602082840312156111105761110f610ee8565b5b5f61111d84828501610f0f565b91505092915050565b61112f81610ef0565b82525050565b5f73ffffffffffffffffffffffffffffffffffffffff82169050919050565b5f61115e82611135565b9050919050565b61116e81611154565b82525050565b5f81519050919050565b5f82825260208201905092915050565b8281835e5f83830152505050565b5f6111a682611174565b6111b0818561117e565b93506111c081856020860161118e565b6111c981610f2b565b840191505092915050565b7f4e487b71000000000000000000000000000000000000000000000000000000005f52602160045260245ffd5b60068110611212576112116111d4565b5b50565b5f81905061122282611201565b919050565b5f61123182611215565b9050919050565b61124181611227565b82525050565b5f6101008201905061125b5f83018b611126565b611268602083018a611165565b6112756040830189611165565b6112826060830188611126565b61128f6080830187611126565b81810360a08301526112a1818661119c565b905081810360c08301526112b5818561119c565b90506112c460e0830184611238565b9998505050505050505050565b5f6020820190506112e45f830184611126565b92915050565b5f8115159050919050565b6112fe816112ea565b82525050565b5f6020820190506113175f8301846112f5565b92915050565b7f4e487b71000000000000000000000000000000000000000000000000000000005f52602260045260245ffd5b5f600282049050600182168061136157607f821691505b6020821081036113745761137361131d565b5b50919050565b5f819050815f5260205f209050919050565b5f6020601f8301049050919050565b5f82821b905092915050565b5f600883026113d67fffffffffffffffffffffffffffffffffffffffffffffffffffffffffffffffff8261139b565b6113e0868361139b565b95508019841693508086168417925050509392505050565b5f819050919050565b5f61141b61141661141184610ef0565b6113f8565b610ef0565b9050919050565b5f819050919050565b61143483611401565b61144861144082611422565b8484546113a7565b825550505050565b5f5f905090565b61145f611450565b61146a81848461142b565b505050565b5b8181101561148d576114825f82611457565b600181019050611470565b5050565b601f8211156114d2576114a38161137a565b6114ac8461138c565b810160208510156114bb578190505b6114cf6114c78561138c565b83018261146f565b50505b505050565b5f82821c905092915050565b5f6114f25f19846008026114d7565b1980831691505092915050565b5f61150a83836114e3565b9150826002028217905092915050565b61152382611174565b67ffffffffffffffff81111561153c5761153b610f3b565b5b611546825461134a565b611551828285611491565b5f60209050601f831160018114611582575f8415611570578287015190505b61157a85826114ff565b8655506115e1565b601f1984166115908661137a565b5f5b828110156115b757848901518255600182019150602085019450602081019050611592565b868310156115d457848901516115d0601f8916826114e3565b8355505b6001600288020188555050505b505050505050565b5f6040820190506115fc5f830185611126565b6116096020830184611165565b9392505050565b7f4e487b71000000000000000000000000000000000000000000000000000000005f52601160045260245ffd5b5f61164782610ef0565b91507fffffffffffffffffffffffffffffffffffffffffffffffffffffffffffffffff820361167957611678611610565b5b600182019050919050565b7f4e487b71000000000000000000000000000000000000000000000000000000005f52603260045260245ffd5b7f4f6e6c79206c656e6465720000000000000000000000000000000000000000005f82015250565b5f6116e5600b8361117e565b91506116f0826116b1565b602082019050919050565b5f6020820190508181035f830152611712816116d9565b9050919050565b7f436f6c6c61746572616c206e6f7420796574206465706f7369746564000000005f82015250565b5f61174d601c8361117e565b915061175882611719565b602082019050919050565b5f6020820190508181035f83015261177a81611741565b9050919050565b7f496e73756666696369656e742066756e647300000000000000000000000000005f82015250565b5f6117b560128361117e565b91506117c082611781565b602082019050919050565b5f6020820190508181035f8301526117e2816117a9565b9050919050565b7f4c6f616e206e6f7420617661696c61626c6500000000000000000000000000005f82015250565b5f61181d60128361117e565b9150611828826117e9565b602082019050919050565b5f6020820190508181035f83015261184a81611811565b9050919050565b7f4f6e6c7920626f72726f776572000000000000000000000000000000000000005f82015250565b5f611885600d8361117e565b915061189082611851565b602082019050919050565b5f6020820190508181035f8301526118b281611879565b9050919050565b7f496e73756666696369656e7420636f6c6c61746572616c0000000000000000005f82015250565b5f6118ed60178361117e565b91506118f8826118b9565b602082019050919050565b5f6020820190508181035f83015261191a816118e1565b905091905056fea2646970667358221220683c5231bfcb5d3752dc1adc6cf55bda49dfa8f8ca44cd2f9190560a5caf839e64736f6c634300081d0033",
  "immutableReferences": {},
  "source": "// SPDX-License-Identifier: MIT\r\npragma solidity ^0.8.17;\r\n\r\ncontract LoanManager {\r\n    uint public collateralAmount = 1000; // PHP equivalent\r\n    uint public interestRate = 5; // 5%\r\n\r\n    enum LoanStatus { Requested, Accepted, CollateralDeposited, Funded, Completed, Cancelled }\r\n\r\n    struct Loan {\r\n        uint id;\r\n        address borrower;\r\n        address lender;\r\n        uint amount;\r\n        uint termDays;\r\n        string purpose;\r\n        string repaymentFrequency;\r\n        LoanStatus status;\r\n    }\r\n\r\n    Loan[] public loans;\r\n    uint public loanCount;\r\n    mapping(uint => bool) public collateralDeposited;\r\n\r\n    event LoanRequested(uint loanId, address borrower);\r\n    event LoanAccepted(uint loanId, address lender);\r\n    event CollateralDeposited(uint loanId, address borrower);\r\n    event LoanFunded(uint loanId, address lender);\r\n    event LoanCompleted(uint loanId);\r\n\r\n    function requestLoan(uint amount, uint termDays, string memory purpose, string memory repaymentFrequency) public {\r\n        loans.push(Loan({\r\n            id: loanCount,\r\n            borrower: msg.sender,\r\n            lender: address(0),\r\n            amount: amount,\r\n            termDays: termDays,\r\n            purpose: purpose,\r\n            repaymentFrequency: repaymentFrequency,\r\n            status: LoanStatus.Requested\r\n        }));\r\n        emit LoanRequested(loanCount, msg.sender);\r\n        loanCount++;\r\n    }\r\n\r\n    function acceptLoan(uint loanId) public {\r\n        require(loans[loanId].status == LoanStatus.Requested, \"Loan not available\");\r\n        loans[loanId].lender = msg.sender;\r\n        loans[loanId].status = LoanStatus.Accepted;\r\n        emit LoanAccepted(loanId, msg.sender);\r\n    }\r\n\r\n    function depositCollateral(uint loanId) public payable {\r\n        require(msg.sender == loans[loanId].borrower, \"Only borrower\");\r\n        require(msg.value >= collateralAmount, \"Insufficient collateral\");\r\n        loans[loanId].status = LoanStatus.CollateralDeposited;\r\n        emit CollateralDeposited(loanId, msg.sender);\r\n    }\r\n\r\n    function fundLoan(uint loanId) public payable {\r\n        require(msg.sender == loans[loanId].lender, \"Only lender\");\r\n        require(loans[loanId].status == LoanStatus.CollateralDeposited, \"Collateral not yet deposited\");\r\n        require(msg.value >= loans[loanId].amount, \"Insufficient funds\");\r\n        payable(loans[loanId].borrower).transfer(loans[loanId].amount);\r\n        loans[loanId].status = LoanStatus.Funded;\r\n        emit LoanFunded(loanId, msg.sender);\r\n    }\r\n\r\n    function getLoanCount() public view returns (uint) {\r\n        return loanCount;\r\n    }\r\n\r\n    function getLoan(uint loanId) public view returns (\r\n        uint, address, address, uint, uint, string memory, string memory, LoanStatus\r\n    ) {\r\n        Loan memory l = loans[loanId];\r\n        return (l.id, l.borrower, l.lender, l.amount, l.termDays, l.purpose, l.repaymentFrequency, l.status);\r\n    }\r\n}\r\n",
  "sourcePath": "C:\\Folder\\Decentralized-Finance-Lending-System\\Blockchain\\blockchain-lending\\contracts\\LoadManager.sol",
  "compiler": {
    "name": "solc",
    "version": "0.8.29+commit.ab55807c.Emscripten.clang"
  },
  "schemaVersion": "3.4.16",
  "updatedAt": "2025-04-25T14:56:40.481Z",
  "devdoc": {
    "kind": "dev",
    "methods": {},
    "version": 1
  },
  "userdoc": {
    "kind": "user",
    "methods": {},
    "version": 1
  }
}