{
  "contractName": "TestSimple",
  "abi": [
    {
      "inputs": [],
      "name": "x",
      "outputs": [
        {
          "internalType": "uint256",
          "name": "",
          "type": "uint256"
        }
      ],
      "stateMutability": "view",
      "type": "function"
    }
  ],
  "bytecode": "0x608060405260055f553480156012575f5ffd5b5060ac80601e5f395ff3fe6080604052348015600e575f5ffd5b50600436106026575f3560e01c80630c55699c14602a575b5f5ffd5b60306044565b604051603b9190605f565b60405180910390f35b5f5481565b5f819050919050565b6059816049565b82525050565b5f60208201905060705f8301846052565b9291505056fea2646970667358221220ea89ac45e9234d154d4fc60affcd67b2f966fe3db5dae0dad07ed3ae68f66a5164736f6c634300081d0033",
  "immutableReferences": {},
  "source": "// SPDX-License-Identifier: MIT\r\npragma solidity ^0.8.17;\r\n\r\ncontract TestSimple {\r\n    uint public x = 5;\r\n}\r\n",
  "sourcePath": "C:\\Folder\\Decentralized-Finance-Lending-System\\Blockchain\\blockchain-lending\\contracts\\TestSimple.sol",
  "compiler": {
    "name": "solc",
    "version": "0.8.29+commit.ab55807c.Emscripten.clang"
  },
  "schemaVersion": "3.4.16",
  "updatedAt": "2025-04-25T14:56:40.485Z",
  "devdoc": {
    "kind": "dev",
    "methods": {},
    "version": 1
  },
  "userdoc": {
    "kind": "user",
    "methods": {},
    "version": 1
  }
}