{
  "contractName": "TransactionStorage",
  "abi": [
    {
      "anonymous": false,
      "inputs": [
        {
          "indexed": false,
          "internalType": "address",
          "name": "sender",
          "type": "address"
        },
        {
          "indexed": false,
          "internalType": "string",
          "name": "description",
          "type": "string"
        },
        {
          "indexed": false,
          "internalType": "uint256",
          "name": "amount",
          "type": "uint256"
        }
      ],
      "name": "TransactionStored",
      "type": "event"
    },
    {
      "inputs": [
        {
          "internalType": "uint256",
          "name": "",
          "type": "uint256"
        }
      ],
      "name": "transactions",
      "outputs": [
        {
          "internalType": "address",
          "name": "sender",
          "type": "address"
        },
        {
          "internalType": "string",
          "name": "description",
          "type": "string"
        },
        {
          "internalType": "uint256",
          "name": "amount",
          "type": "uint256"
        }
      ],
      "stateMutability": "view",
      "type": "function"
    },
    {
      "inputs": [
        {
          "internalType": "string",
          "name": "_description",
          "type": "string"
        },
        {
          "internalType": "uint256",
          "name": "_amount",
          "type": "uint256"
        }
      ],
      "name": "storeTransaction",
      "outputs": [],
      "stateMutability": "nonpayable",
      "type": "function"
    },
    {
      "inputs": [
        {
          "internalType": "uint256",
          "name": "index",
          "type": "uint256"
        }
      ],
      "name": "getTransaction",
      "outputs": [
        {
          "internalType": "address",
          "name": "",
          "type": "address"
        },
        {
          "internalType": "string",
          "name": "",
          "type": "string"
        },
        {
          "internalType": "uint256",
          "name": "",
          "type": "uint256"
        }
      ],
      "stateMutability": "view",
      "type": "function"
    },
    {
      "inputs": [],
      "name": "getTransactionCount",
      "outputs": [
        {
          "internalType": "uint256",
          "name": "",
          "type": "uint256"
        }
      ],
      "stateMutability": "view",
      "type": "function"
    }
  ],
  "bytecode": "0x6080604052348015600e575f5ffd5b50610a3f8061001c5f395ff3fe608060405234801561000f575f5ffd5b506004361061004a575f3560e01c80632e7700f01461004e57806333ea3dc81461006c57806347ec320b1461009e5780639ace38c2146100ba575b5f5ffd5b6100566100ec565b6040516100639190610420565b60405180910390f35b61008660048036038101906100819190610474565b6100f7565b6040516100959392919061054e565b60405180910390f35b6100b860048036038101906100b391906106b6565b610232565b005b6100d460048036038101906100cf9190610474565b61032f565b6040516100e39392919061054e565b60405180910390f35b5f5f80549050905090565b5f60605f5f5f858154811061010f5761010e610710565b5b905f5260205f2090600302016040518060600160405290815f82015f9054906101000a900473ffffffffffffffffffffffffffffffffffffffff1673ffffffffffffffffffffffffffffffffffffffff1673ffffffffffffffffffffffffffffffffffffffff16815260200160018201805461018a9061076a565b80601f01602080910402602001604051908101604052809291908181526020018280546101b69061076a565b80156102015780601f106101d857610100808354040283529160200191610201565b820191905f5260205f20905b8154815290600101906020018083116101e457829003601f168201915b505050505081526020016002820154815250509050805f015181602001518260400151935093509350509193909250565b5f60405180606001604052803373ffffffffffffffffffffffffffffffffffffffff16815260200184815260200183815250908060018154018082558091505060019003905f5260205f2090600302015f909190919091505f820151815f015f6101000a81548173ffffffffffffffffffffffffffffffffffffffff021916908373ffffffffffffffffffffffffffffffffffffffff16021790555060208201518160010190816102e3919061093a565b506040820151816002015550507f8a5f51773d85b1204cc88e20487110829c40d3e5534aee2faae95169978cfae93383836040516103239392919061054e565b60405180910390a15050565b5f818154811061033d575f80fd5b905f5260205f2090600302015f91509050805f015f9054906101000a900473ffffffffffffffffffffffffffffffffffffffff16908060010180546103819061076a565b80601f01602080910402602001604051908101604052809291908181526020018280546103ad9061076a565b80156103f85780601f106103cf576101008083540402835291602001916103f8565b820191905f5260205f20905b8154815290600101906020018083116103db57829003601f168201915b5050505050908060020154905083565b5f819050919050565b61041a81610408565b82525050565b5f6020820190506104335f830184610411565b92915050565b5f604051905090565b5f5ffd5b5f5ffd5b61045381610408565b811461045d575f5ffd5b50565b5f8135905061046e8161044a565b92915050565b5f6020828403121561048957610488610442565b5b5f61049684828501610460565b91505092915050565b5f73ffffffffffffffffffffffffffffffffffffffff82169050919050565b5f6104c88261049f565b9050919050565b6104d8816104be565b82525050565b5f81519050919050565b5f82825260208201905092915050565b8281835e5f83830152505050565b5f601f19601f8301169050919050565b5f610520826104de565b61052a81856104e8565b935061053a8185602086016104f8565b61054381610506565b840191505092915050565b5f6060820190506105615f8301866104cf565b81810360208301526105738185610516565b90506105826040830184610411565b949350505050565b5f5ffd5b5f5ffd5b7f4e487b71000000000000000000000000000000000000000000000000000000005f52604160045260245ffd5b6105c882610506565b810181811067ffffffffffffffff821117156105e7576105e6610592565b5b80604052505050565b5f6105f9610439565b905061060582826105bf565b919050565b5f67ffffffffffffffff82111561062457610623610592565b5b61062d82610506565b9050602081019050919050565b828183375f83830152505050565b5f61065a6106558461060a565b6105f0565b9050828152602081018484840111156106765761067561058e565b5b61068184828561063a565b509392505050565b5f82601f83011261069d5761069c61058a565b5b81356106ad848260208601610648565b91505092915050565b5f5f604083850312156106cc576106cb610442565b5b5f83013567ffffffffffffffff8111156106e9576106e8610446565b5b6106f585828601610689565b925050602061070685828601610460565b9150509250929050565b7f4e487b71000000000000000000000000000000000000000000000000000000005f52603260045260245ffd5b7f4e487b71000000000000000000000000000000000000000000000000000000005f52602260045260245ffd5b5f600282049050600182168061078157607f821691505b6020821081036107945761079361073d565b5b50919050565b5f819050815f5260205f209050919050565b5f6020601f8301049050919050565b5f82821b905092915050565b5f600883026107f67fffffffffffffffffffffffffffffffffffffffffffffffffffffffffffffffff826107bb565b61080086836107bb565b95508019841693508086168417925050509392505050565b5f819050919050565b5f61083b61083661083184610408565b610818565b610408565b9050919050565b5f819050919050565b61085483610821565b61086861086082610842565b8484546107c7565b825550505050565b5f5f905090565b61087f610870565b61088a81848461084b565b505050565b5b818110156108ad576108a25f82610877565b600181019050610890565b5050565b601f8211156108f2576108c38161079a565b6108cc846107ac565b810160208510156108db578190505b6108ef6108e7856107ac565b83018261088f565b50505b505050565b5f82821c905092915050565b5f6109125f19846008026108f7565b1980831691505092915050565b5f61092a8383610903565b9150826002028217905092915050565b610943826104de565b67ffffffffffffffff81111561095c5761095b610592565b5b610966825461076a565b6109718282856108b1565b5f60209050601f8311600181146109a2575f8415610990578287015190505b61099a858261091f565b865550610a01565b601f1984166109b08661079a565b5f5b828110156109d7578489015182556001820191506020850194506020810190506109b2565b868310156109f457848901516109f0601f891682610903565b8355505b6001600288020188555050505b50505050505056fea264697066735822122040e46e91b7fded6329ed95aff4a18e40369d7de7ea800e3744b1d562901847d364736f6c634300081d0033",
  "immutableReferences": {},
  "source": "// SPDX-License-Identifier: MIT\r\npragma solidity ^0.8.0;\r\n\r\ncontract TransactionStorage {\r\n    struct Transaction {\r\n        address sender;\r\n        string description;\r\n        uint256 amount;\r\n    }\r\n\r\n    Transaction[] public transactions;\r\n\r\n    event TransactionStored(address sender, string description, uint256 amount);\r\n\r\n    function storeTransaction(string memory _description, uint256 _amount) public {\r\n        transactions.push(Transaction(msg.sender, _description, _amount));\r\n        emit TransactionStored(msg.sender, _description, _amount);\r\n    }\r\n\r\n    function getTransaction(uint index) public view returns (address, string memory, uint256) {\r\n        Transaction memory txn = transactions[index];\r\n        return (txn.sender, txn.description, txn.amount);\r\n    }\r\n\r\n    function getTransactionCount() public view returns (uint) {\r\n        return transactions.length;\r\n    }\r\n}\r\n",
  "sourcePath": "C:\\Folder\\Decentralized-Finance-Lending-System\\Blockchain\\blockchain-lending\\contracts\\TransactionStorage.sol",
  "compiler": {
    "name": "solc",
    "version": "0.8.29+commit.ab55807c.Emscripten.clang"
  },
  "schemaVersion": "3.4.14",
  "updatedAt": "2025-04-14T16:07:15.382Z",
  "devdoc": {
    "kind": "dev",
    "methods": {},
    "version": 1
  },
  "userdoc": {
    "kind": "user",
    "methods": {},
    "version": 1
  }
}