{
  "contractName": "TransactionStorage",
  "abi": [
    {
      "anonymous": false,
      "inputs": [
        {
          "indexed": false,
          "internalType": "address",
          "name": "sender",
          "type": "address"
        },
        {
          "indexed": false,
          "internalType": "string",
          "name": "description",
          "type": "string"
        },
        {
          "indexed": false,
          "internalType": "uint256",
          "name": "amount",
          "type": "uint256"
        }
      ],
      "name": "TransactionStored",
      "type": "event"
    },
    {
      "inputs": [
        {
          "internalType": "uint256",
          "name": "",
          "type": "uint256"
        }
      ],
      "name": "transactions",
      "outputs": [
        {
          "internalType": "address",
          "name": "sender",
          "type": "address"
        },
        {
          "internalType": "string",
          "name": "description",
          "type": "string"
        },
        {
          "internalType": "uint256",
          "name": "amount",
          "type": "uint256"
        }
      ],
      "stateMutability": "view",
      "type": "function"
    },
    {
      "inputs": [
        {
          "internalType": "uint256",
          "name": "index",
          "type": "uint256"
        }
      ],
      "name": "getTransaction",
      "outputs": [
        {
          "internalType": "address",
          "name": "",
          "type": "address"
        },
        {
          "internalType": "string",
          "name": "",
          "type": "string"
        },
        {
          "internalType": "uint256",
          "name": "",
          "type": "uint256"
        }
      ],
      "stateMutability": "view",
      "type": "function"
    },
    {
      "inputs": [],
      "name": "getTransactionCount",
      "outputs": [
        {
          "internalType": "uint256",
          "name": "",
          "type": "uint256"
        }
      ],
      "stateMutability": "view",
      "type": "function"
    }
  ],
  "bytecode": "0x6080604052348015600e575f5ffd5b506105198061001c5f395ff3fe608060405234801561000f575f5ffd5b506004361061003f575f3560e01c80632e7700f01461004357806333ea3dc8146100615780639ace38c214610093575b5f5ffd5b61004b6100c5565b60405161005891906102fc565b60405180910390f35b61007b60048036038101906100769190610343565b6100d0565b60405161008a9392919061041d565b60405180910390f35b6100ad60048036038101906100a89190610343565b61020b565b6040516100bc9392919061041d565b60405180910390f35b5f5f80549050905090565b5f60605f5f5f85815481106100e8576100e7610459565b5b905f5260205f2090600302016040518060600160405290815f82015f9054906101000a900473ffffffffffffffffffffffffffffffffffffffff1673ffffffffffffffffffffffffffffffffffffffff1673ffffffffffffffffffffffffffffffffffffffff168152602001600182018054610163906104b3565b80601f016020809104026020016040519081016040528092919081815260200182805461018f906104b3565b80156101da5780601f106101b1576101008083540402835291602001916101da565b820191905f5260205f20905b8154815290600101906020018083116101bd57829003601f168201915b505050505081526020016002820154815250509050805f015181602001518260400151935093509350509193909250565b5f8181548110610219575f80fd5b905f5260205f2090600302015f91509050805f015f9054906101000a900473ffffffffffffffffffffffffffffffffffffffff169080600101805461025d906104b3565b80601f0160208091040260200160405190810160405280929190818152602001828054610289906104b3565b80156102d45780601f106102ab576101008083540402835291602001916102d4565b820191905f5260205f20905b8154815290600101906020018083116102b757829003601f168201915b5050505050908060020154905083565b5f819050919050565b6102f6816102e4565b82525050565b5f60208201905061030f5f8301846102ed565b92915050565b5f5ffd5b610322816102e4565b811461032c575f5ffd5b50565b5f8135905061033d81610319565b92915050565b5f6020828403121561035857610357610315565b5b5f6103658482850161032f565b91505092915050565b5f73ffffffffffffffffffffffffffffffffffffffff82169050919050565b5f6103978261036e565b9050919050565b6103a78161038d565b82525050565b5f81519050919050565b5f82825260208201905092915050565b8281835e5f83830152505050565b5f601f19601f8301169050919050565b5f6103ef826103ad565b6103f981856103b7565b93506104098185602086016103c7565b610412816103d5565b840191505092915050565b5f6060820190506104305f83018661039e565b818103602083015261044281856103e5565b905061045160408301846102ed565b949350505050565b7f4e487b71000000000000000000000000000000000000000000000000000000005f52603260045260245ffd5b7f4e487b71000000000000000000000000000000000000000000000000000000005f52602260045260245ffd5b5f60028204905060018216806104ca57607f821691505b6020821081036104dd576104dc610486565b5b5091905056fea2646970667358221220dc94c0db2e22f58b50d9e04ce10e9faeb6371380fba6e21010320a8186a7399264736f6c634300081d0033",
  "immutableReferences": {},
  "source": "// SPDX-License-Identifier: MIT\r\npragma solidity ^0.8.0;\r\n\r\ncontract TransactionStorage {\r\n    struct Transaction {\r\n        address sender;\r\n        string description;\r\n        uint256 amount;\r\n    }\r\n\r\n    Transaction[] public transactions;\r\n\r\n    event TransactionStored(address sender, string description, uint256 amount);\r\n\r\n    /***function storeTransaction(string memory _description, uint256 _amount) public {\r\n        transactions.push(Transaction(msg.sender, _description, _amount));\r\n        emit TransactionStored(msg.sender, _description, _amount);\r\n    }***/\r\n\r\n    function getTransaction(uint index) public view returns (address, string memory, uint256) {\r\n        Transaction memory txn = transactions[index];\r\n        return (txn.sender, txn.description, txn.amount);\r\n    }\r\n\r\n    function getTransactionCount() public view returns (uint) {\r\n        return transactions.length;\r\n    }\r\n}\r\n",
  "sourcePath": "C:\\Folder\\Decentrtalized-Finance-Lending-System\\Blockchain\\blockchain-lending\\contracts\\TransactionStorage.sol",
  "compiler": {
    "name": "solc",
    "version": "0.8.29+commit.ab55807c.Emscripten.clang"
  },
  "schemaVersion": "3.4.14",
  "updatedAt": "2025-04-09T16:18:03.622Z",
  "devdoc": {
    "kind": "dev",
    "methods": {},
    "version": 1
  },
  "userdoc": {
    "kind": "user",
    "methods": {},
    "version": 1
  }
}